:020000040800F2
:1000000000800120FD310008313200083132000843
:10001000313200083132000831320008000000009F
:10002000000000000000000000000000054900087A
:100030003132000800000000AB4900080B4A0008FC
:100040003132000831320008313200083132000804
:1000500031320008313200083132000831320008F4
:1000600031320008313200083132000831320008E4
:1000700031320008313200083132000831320008D4
:10008000313200083132000831320008000000002F
:1000900000000000000000000000000031320008F5
:1000A00031320008313200083132000831320008A4
:1000B0003132000831320008313200083132000894
:1000C0003132000831320008313200083132000884
:1000D00031320008313200083132000800000000DF
:1000E00031320008313200083132000800000000CF
:1000F0000000000000000000000000003132000895
:1001000000000000313200083132000831320008AE
:1001100000000000000000000000000000000000DF
:100120003132000831320008313200083132000823
:100130003132000800000000000000000000000054
:100140000000000000000000000000003132000844
:1001500031320008313200083132000831320008F3
:1001600031320008313200080000000000000000B9
:10017000000000000000000000000000000000007F
:100180000000000031320008000000000000000004
:100190003132000810B5054C237833B9044B13B144
:1001A0000448AFF300800123237010BDA00B002092
:1001B00000000000147C010808B5034B1BB1034983
:1001C0000348AFF3008008BD00000000A40B00202E
:1001D000147C0108154B002B08BF134B9D46A3F55B
:1001E000803A00218B460F461348144A121A0AF02F
:1001F000E5FB0F4B002B00D098470E4B002B00D097
:1002000098470020002104000D000D48002802D06E
:100210000C4802F070FD09F0D5FE2000290002F024
:100220002AFD02F065FD00BF0000080000800120EB
:1002300000000000692C0008A00B0020C82200204C
:10024000F72C000800000000F0B5002384681D466C
:1002500001269C420CD0426852F8232091685768CE
:100260000131B942916024BF167395600133F0E704
:10027000F0BD034607C983E807007047704710B414
:10028000426881685410034601EB6200D20748BF00
:100290000A591B685DF8044B48BFD3581847027BC6
:1002A00022B103680022DB68027318477047000020
:1002B000034AC0E90021002282600273704700BF38
:1002C000546301087047C36810B504460BB19B68BE
:1002D0009847204610BD000038B50546064B45F846
:1002E000183B044606F07EF82846FFF7ECFF204650
:1002F00006F0D8F8204638BD4873010810B504460A
:10030000FFF7EAFF2046282106F0FAFA204610BD42
:1003100038B50546054B45F80C3B0446284606F023
:1003200061F82846FFF7D8FF204638BD446301082E
:1003300010B50446FFF7ECFF2046342106F0E0FA42
:10034000204610BD38B5CB6804460D460BB15B683E
:100350009847EB68E360204638BD000070B52DED8E
:10036000028B08EE103A1C4B826000F10C0588B03D
:100370000446C0E90031284606F074F8174A184BC5
:10038000E3600023CDE900236946236304F12406DA
:10039000144B039304A80294FFF7D4FF3046FFF7F1
:1003A00092FF04A93046FFF7CDFFDFED0F7A28EE6C
:1003B000278A2846FCEEC87A17EE901A05F0FEFF51
:1003C00004A8FFF780FF6846FFF77DFF204608B0CE
:1003D000BDEC028B70BD00BF4463010849020008F8
:1003E00048730108306301080024744970470346CC
:1003F00007C983E807007047704710B442688168F6
:100400005410034601EB6200D20748BF0A591B682B
:100410005DF8044B48BFD358184710B54FF48871A6
:10042000044606F06DFA204610BD00F1080373B5CE
:100430000360044608460D460BF042F90F2805EB11
:100440000006019007D9002201A9204606F072FBA0
:10045000019B2060A36020683246294606F096FB87
:10046000019B2268636000212046D15402B070BD18
:1004700070B5044672B6FF263546206905F0A4FE25
:1004800080B3D4F81831D4F81C110133B3FBF6F261
:10049000C2EB02229B1A8B4224D02069BC3005F0AB
:1004A00017FED4F81831D4F81C110133B3FBF6F25F
:1004B000C2EB02229B1A8B42DFD0D4F818312344BE
:1004C000C0B21876D4F818310133B3FBF5F2C2EBA1
:1004D00002229B1AC4F81831D4F820310133C4F831
:1004E0002031CAE762B670BDD0F8082110B50132DC
:1004F000D0F80441FF23B2FBF3F1C1EB0121521A02
:10050000A24215D0D0F808210132B2FBF3F3C3EBBD
:100510000323D31AC0F80831D0F8083103441B79FB
:10052000D0F80C21013ADBB2C0F80C21184610BDFE
:100530000023FBE7F8B5044672B6FF2600F5927576
:10054000206905F052FEB0B1D4F82C32D4F828124C
:100550000133B3FBF6F2C2EB02229B1A8B420AD0A4
:10056000206900F1BC072846FFF7BEFF0146384668
:1005700005F09AFDE4E762B6F8BD00002DE9F0430E
:10058000D0F81C31D0F818110133FF22B3FBF2F27E
:10059000C2EB02229B1A8B42ADF5097D04460BD0BB
:1005A0001430FFF7A1FF2328074609D184F834024D
:1005B00004F23523C4F834330DF5097DBDE8F0832A
:1005C000D4F8343304F54D729342F5D00A286ED135
:1005D00013F8032C3B2A6AD113F8022C3B2A66D16C
:1005E00013F8013C0D2B62D104F50D78334908ABAB
:1005F0006A4640460AF078FE022856D1694648A865
:10060000FFF713FF04F54F79D4F840634D4656B118
:1006100006F1100048A906F0C7FA0028AABF35461F
:10062000F668B668F3E7A94508D005F1100148A8B7
:1006300006F0BAFA35EA200528BF4D4648A806F06C
:100640009DFA4D4531D01E4B48AA03F1100C186895
:100650005968164603C6083363453246F7D11B88EE
:100660003380EE2200210DF599700AF0A7F948A910
:1006700002A8FFF7DAFE6B6B05F128062BB91149CA
:10068000114840F21D6206F02BF86B6B48AA1B68FC
:1006900008A93046984720690C4948AB6A46BC30E7
:1006A00005F028FD02A806F069FAC4F83483D4F8EE
:1006B00034331F70D4F8343301337BE764630108AB
:1006C000E86301086E630108BE630108C3630108A3
:1006D000F8B505460C46A4B1E1682846FFF7F8FFD7
:1006E000636BA66804F110071BB19B6804F1280036
:1006F0009847384606F042FA204602F017FB344687
:10070000E9E7F8BD10B5074BD0F840130360044685
:1007100000F54E70FFF7DCFF2046FFF7D3FD2046C3
:1007200010BD00BFF064010810B50446FFF7EAFFF2
:1007300020464FF4547106F0E3F8204610BD38B55A
:10074000CB6804460D460BB15B689847EB68E360E5
:10075000204638BD2DE9F047074638200D4616469D
:10076000984602F0D7FA05F110010446103006F061
:1007700063FA05F1280104F12800FFF7E0FF2B7868
:10078000E96823700023C4E90233666029B1434657
:1007900022463846FFF7DEFFE060AE68A1464FF024
:1007A000000A0EB3382002F0B5FA06F11001054632
:1007B000103006F041FA06F1280105F12800FFF794
:1007C000BEFF33782B70C5E902AAC9F80850C5F8F6
:1007D0000490F16829B143462A463846FFF7BAFF2C
:1007E000E860B668A946DCE72046BDE8F08700006F
:1007F0007FB504460D4600211646FFF759FD394BDB
:100800002360394B2561636104F1180104F217106C
:10081000002201F8012B8142FBD1FE21C4F81821EE
:10082000C4F82431C4F81C1104F59473C4F82021D1
:10083000002504F2272203F8015B9A42FBD1FE2334
:10084000C4F82852C4F82C3204F50D734FF48072AA
:100850000021C4F8305218460AF0B0F8B168C4F864
:10086000340304F54F72C4E9D052C4E9D22504F52B
:100870004E7084F83C53B1B16B460090FFF76AFFAD
:1008800003461A469B68002BFBD1C4F84423034659
:100890001A46DB68002BFBD17369C4F84823C4F8FF
:1008A0004C33C4F840030025104B114E20690093CF
:1008B0002A466946CDE90154039605F01BFD6846BA
:1008C000FFF701FD0B4B206901226946CDE9003598
:1008D000CDE9024605F00EFD6846FFF7F4FC204620
:1008E00004B070BDF0640108D4630108710400080D
:1008F000DC6301083505000838B5B0F91030013364
:10090000044604D10C490D48482205F0E9FEA369CC
:100910001D6863691D40B4F91030013304D10649E4
:1009200006483A2205F0DCFE636915B9E2691360F6
:1009300038BD226A1B04FAE7006501086A650108F0
:1009400010B5034B03600446FFF7BCFC204610BD06
:100950008C65010810B50446FFF7F2FF20462421FC
:1009600005F0CEFF204610BD82B070B5054604AC40
:1009700084E80C002C46FFF79BFC04AE0B4B44F8BC
:10098000103B0FCE0FC433682360B5F9103001332C
:1009900004D1074907483A2205F0A2FEEB696A69CB
:1009A0001A602846BDE8704002B070478C650108A7
:1009B000006501086A65010810B5034B0360044631
:1009C000FFF780FC204610BDC865010810B504463D
:1009D000FFF7F2FF2046182105F092FF204610BDD8
:1009E000437B10B5044673B1006903685B689847A0
:1009F00013F0D8FF024660690B46BDE8104002497B
:100A0000BC3005F077BB10BD9C65010870B504468D
:100A10001D461646FFF74CFC034B23600023C4E938
:100A200004656373204670BDC865010837B50023AF
:100A300005461446084601AA094901930AF054FCE8
:100A400001280BD1019B0749002BD4BF00230123B0
:100A50006B7320460AF026FC03B030BD0249F8E76C
:100A600078680108AB650108B165010807EE901AC6
:100A700090ED077AB4EEE77AF1EE10FA09D890ED2E
:100A8000087AB4EEE77AF1EE10FAACBF012000204C
:100A9000704700207047000013B50446019105F02F
:100AA00039FE019813F07EFF0BA3D3E9002313F066
:100AB000D1FF0BA3D3E9002313F016FE14F0C2FA02
:100AC0000146201D01F01AFE02B0BDE8104005F0FD
:100AD0004BBE00BFAFF3008040BD19355F254F3FCF
:100AE000DD2406819543B33F7FB51D46124B02912D
:100AF000044640F8043B16460190039005F00AFEB8
:100B0000DDE9010101F006FF05F02EFEE661256238
:100B100005F000FE0198142101F0C4FF05F024FE49
:100B200005F0F8FD0198054901F0E8FD05F01CFE0F
:100B3000204604B070BD00BFE0650108AC1C9A3DC2
:100B400010B5034B034A0446FFF7CEFF204610BD05
:100B50000000D0410000D0C17047704707EE901AE6
:100B600090ED157AB4EEE77AF1EE10FA09D890ED2F
:100B7000167AB4EEE77AF1EE10FAACBF012000204D
:100B8000704700207047A0F10400FFF7E7BF10B5E1
:100B90000C21044605F0B4FE204610BD38B5B0F96E
:100BA0000030013304460D4604D1064906483A2276
:100BB00005F096FD636815B1E268136038BD2269DF
:100BC0001B04FAE7006501086A650108B0F9003006
:100BD000013310B5044604D106490748482205F000
:100BE0007FFDA3681A6863681A4214BF01200020C1
:100BF00010BD00BF006501086A65010838B500F145
:100C000020052DED028B0446284608EE101AFFF74A
:100C1000DDFFB0FA80F14909284604F13405FFF7F9
:100C2000BDFF2846FFF7D2FFB0FA80F149092846F8
:100C3000FFF7B4FF05F06EFDF0EEC87A04F108008E
:100C400017EE901A01F05AFDBDEC028BBDE838405A
:100C500005F08ABDA0F10400FFF7D0BF10B5002158
:100C600004462030FFF79AFF04F134000021FFF71B
:100C700095FF05F04FFD04F10800034901F03EFD2A
:100C8000BDE8104005F070BD0000C842A0F10400AE
:100C9000FFF7E4BF38B52DED028B08EE101AB5EE64
:100CA000C08AF1EE10FA044600F1340500F120008C
:100CB00016D50021FFF772FF01212846FFF76EFFCE
:100CC00005F028FDF0EEC87A04F1080017EE901A3E
:100CD00001F014FDBDEC028BBDE8384005F044BDC9
:100CE0000121FFF75BFF0021E7E7A0F10400FFF718
:100CF000D1BF38B5142204460D46002109F05EFE2E
:100D00002046294605F007FC204638BD7047000004
:100D1000034610B553F8042B044612B9036020684B
:100D200010BD9A42FBD003490348592205F0D8FC74
:100D3000F5E700BFE86501083C66010808B5024810
:100D4000FFF7E6FF08BD00BFE816002008B502481F
:100D5000FFF7DEFF08BD00BFE816002073B50546AB
:100D6000094B0A4E45F8043B044630460191FFF713
:100D7000CFFF0199284601F02DFA3046FFF7C8FF52
:100D8000204602B070BD00BF58660108E81600207A
:100D9000F7B50446194801911D4600F108032430B7
:100DA0002360606004F10807164605F0B3FC019962
:100DB000384601F0AFFD05F0D7FC314604F12000C4
:100DC000FFF797FF294604F13400FFF792FFBDF9C2
:100DD000201004F14800FFF7C1FF4FF03F43636567
:100DE0004FF07C53A36505F095FC3846C82101F00F
:100DF000F9FC05F0B9FC204603B0F0BD68660108B7
:100E000038B5134D2DED028B04462846FFF780FFC1
:100E100004F14C0001F042FA08EE100A2846FFF7F0
:100E200077FFF1EE047A68EE277A17EE900A13F056
:100E3000B9FD05A3D3E9002313F036FF14F002F93E
:100E4000BDEC028B38BD00BFEC51B81E85EBC13F35
:100E5000E8160020704710B50446006810B103681A
:100E6000DB689847204610BD014B586A00B27047B6
:100E700000080040014B00225A6270470008004001
:100E800010B50421044605F03BFD204610BD0000CE
:100E9000184A136B43F002031363174B196841F4AC
:100EA00020411960596841F0C0015960996841F4C6
:100EB00070419960D96841F42041D960196A41F0C4
:100EC00008511962596A5962136C43F004031364A0
:100ED0000A4B01221A6003229A604FF2F1129A61C2
:100EE00011210022DA6119624FF6FF719A62D9620C
:100EF0005A62704700380240000402400008004077
:100F000010B5084C236853B9042001F003FF064ACA
:100F100002602060FFF7BCFF044B22681A60206863
:100F200010BD00BFBC0B0020A4660108C00B002050
:100F3000024A0349034801F0D9BE00BF98010020CE
:100F4000570E0008C00B00200020704710B5044663
:100F5000406803681B689847208160680368BDE8A3
:100F600010405B681847B0F908007047B0F90830C6
:100F700007EE103A038A07EE903AB8EEC77AF8EE19
:100F8000E77AC7EE276AD0ED037AC6EEA77A17EEA6
:100F9000900A704713B50446FFF7D8FFB4F908303C
:100FA000A06D07EE903A0368F8EEE77A01A9CDED5F
:100FB000017A1B68984707EE900AFDEEE77A17EE74
:100FC000903A18B213F0DCFCC4E9140102B010BD71
:100FD00008B5D0E9140113F0EDFF00B208BDA0F18F
:100FE0004800FFF7F5BFD0B50446008A13F0C8FCEF
:100FF00002460B46D4E9140113F056FE0646E0689B
:101000000F4613F0CFFC02460B463046394613F02C
:101010004BFE14F017F8D0BDA0F14800FFF7E3BF76
:10102000034607C983E807007047704710B4426859
:1010300081685410034601EB6200D20748BF0A5989
:101040001B685DF8044B48BFD3581847D0ED037AAE
:101050009FED057A67EE877A1430FDEEE77A17EE9A
:10106000901A03F017BB00BF00007A4430B5044665
:101070001248238289B00123C4E900020C22CDE981
:1010800000230F4BE160002204F114050294039346
:1010900022621BB1694604A8FFF7C2FF039B0793B6
:1010A000012204A9284603F003FB04A8FFF70BF96B
:1010B0006846FFF708F9204609B030BDC866010848
:1010C000B466010810B50446FFF7D0FF044B03F1E6
:1010D00008022833A364029B2260A365204610BD4A
:1010E000D866010803624FF4206383844FF07C5379
:1010F00083624FF03F4310B5C362064B0363064B58
:101100004363064B8363029BC363039B0364C0E991
:10111000001210BD000020410000F0410000964385
:10112000C0E902237047D0E90401704740680368B2
:101130005B6818472DE9F843056A044616461F46C2
:1011400065B11046194613F07DFF2B6801461B68F8
:101150002846984713F026FC06460F46E06A13F02F
:1011600021FC32463B468046894613F003FF40B1DE
:1011700094F82430013384F8243040464946BDE8D1
:10118000F883A06A13F00EFC32463B46804689463F
:1011900013F0D2FE0028EBD1002384F82430B046AF
:1011A000B946EAE72DE9F043044600682DED028BCD
:1011B000036883B05B68984708EE100A20680368EC
:1011C0009B689847D4ED0E7AF0EEC88AF4EEE87A80
:1011D000F1EE10FA05460CD500220023C4E90223E3
:1011E000C4E904234FF0FF3003B0BDEC028BBDE82F
:1011F000F083D4E90289206B29F0004713F0D2FB79
:1012000042463B46464613F0B5FE70B1D4ED0D7A2A
:10121000F4EEE87AF1EE10FA07DD00220023C4E9CB
:101220000423C4E906230120DEE7002D3BD030462D
:10123000394613F007FF07EE900A666877EEC87A22
:10124000336817EE900A1F6813F0ACFB804689469E
:10125000CDE9008969463046B84713F0F3FE13F034
:10126000A1FB02460B462046FFF764FF13F0EAFE9F
:1012700094F8242094F825309A4217D9B5EE408A84
:10128000F1EE10FA12D1606803685B68984700239A
:101290000022C4E90223C4E90423002384F8243093
:1012A0006FF00100A0E740464946C2E713F07AFB21
:1012B00006460F46C4E90467C4E90689D4E9020179
:1012C0000022002313F038FE0028ACD0002DAAD055
:1012D00007F1004326616361A5E770B514461D461A
:1012E0000646C06B13F05EFB22462B4613F02EFE23
:1012F00048B1306C13F056FB22462B4613F030FEFB
:10130000003818BF012070BD034607C983E80700F5
:101310007047704710B4426881685410034601EB6F
:101320006200D20748BF0A591B685DF8044B48BFEA
:10133000D358184770B590F82430012B044602D0DA
:10134000022B4FD070BDC068A16903681B68984725
:101350002069E169036881F000411B68984794F8AF
:101360002530002B39D0256D002D36D094ED057A2F
:10137000DFED277A67EE277A17EE900A13F012FB5B
:1013800002460B462846FFF7CBFE206DFFF70AFF0B
:10139000431C0FD160681F49BC3004F0ABFEA0684D
:1013A00003685B689847206DFFF7C0FE022384F84E
:1013B0002430C7E7023002D160681749ECE7A5681E
:1013C000206D2B681E68FFF7AEFE13F03BFE334620
:1013D00001462846BDE870401847A0686169036867
:1013E0001B68F7E7C068A16903681B689847206914
:1013F000E16903681B689847A06803685B689847C1
:10140000206D00289ED0BDE87040FFF78FBE00BF62
:10141000000016430867010839670108F0B50E4659
:1014200089B0294904AB04461546304603AA09F0A1
:101430005BFF07AB074600933046244906AB05AA7D
:1014400009F052FF022F06463BD194F825308BB1AC
:101450009DED037ADFED1E7A67EE277A17EE900A8C
:1014600013F0A0FA02460B46206DFFF736FF88B94D
:10147000184906E0A06803990368DB68984728B913
:101480001549284609F00EFF09B0F0BD94F8253043
:10149000002BDDD1E068049903685B68984708B9C0
:1014A0000E49EEE7032E08BF079B0D4918BF002326
:1014B000E361039B6361049BA361012384F82430EF
:1014C000DFE70849DDE700BF5467010851670108FD
:1014D000000016437A6701085A6701089C670108F3
:1014E000AB650108B165010837B5044615460846E5
:1014F00001AA114909F0F8FE01281BD1E068019901
:1015000003685B68984728B90C49284609F0CAFE69
:1015100003B030BD0023206D019A6361E3610223B3
:10152000A26184F8243018B100220023FFF7F8FDEF
:101530000349EAE70349E8E7576701089C670108A0
:10154000AB650108B165010837B5002304461546AF
:10155000084601AA0E49019309F0C6FE012815D1DB
:10156000236D2BB90B49284609F09CFE03B030BD12
:1015700000236361019B0849002BD4BF0023012392
:1015800084F82530022384F82430ECE70349EAE7A5
:1015900078680108C5670108AB650108B1650108F5
:1015A000D0ED087A9FED057A67EE877A5430FDEE2C
:1015B000E77A17EE901A03F06DB800BF00007A4486
:1015C00070B5044688B0A3600C9BE36017480D9B80
:1015D000236100250023C4E900026361A361E36184
:1015E000216284F8255004F1280004F03BFF104BE1
:1015F000A3620E9B236501260E4BE56469462566B2
:1016000004A80393CDE901640095FEF79BFE3246E2
:1016100004A904F1540003F04BF804A8FEF753FEAC
:101620006846FEF750FE204608B070BD20680108ED
:10163000607301080C680108034607C983E80700C6
:1016400070477047034607C983E807007047704733
:1016500070B4446885686610034605EB6400E407CF
:1016600048BFAC591B6848BFE35870BC184770B4FA
:10167000446885686610034605EB6400E40748BFCC
:10168000AC591B6848BFE35870BC1847D0ED056AD9
:10169000DFED107AC0ED066A91ED007A90ED026AF6
:1016A00080ED057AF0EE675AE7EE065A90ED036A90
:1016B000B0EE657AA6EE267AD0ED046A90ED016A66
:1016C000E6EE267A77EE677AC0ED047A17EE900A96
:1016D000704700BF0000000010B5054B8364054B48
:1016E000044640F8143B02F0D8FF204610BD00BF6E
:1016F00000670108C866010807EE901A90ED017AAC
:10170000F4EEC77AF1EE10FA73B500F10C030BD9C1
:1017100000F1140306DD90ED027AF4EEC77AF1EEE3
:1017200010FA01D900F11C0317EE900A1C685E68DC
:1017300013F038F90E4B002206F07EFB02460B46F2
:101740002046CDE9002313F02DF9DDE9002313F045
:1017500081F9044630460D4613F024F902460B4643
:101760002046294612F0C0FF13F06CFC02B070BD99
:101770000000F03F38B505460024AB68A34207D906
:101780006B6853F8240003689B6898470134F4E7BA
:1017900038BD000070B5164C164D174E20464FF45C
:1017A0007A31BC3404F0FCFC1449204604F0A2FC5D
:1017B0002946204604F09EFC3146204604F09AFC5F
:1017C0000F49204604F096FC3146204604F092FC76
:1017D0002946204604F08EFC0A49204604F08AFC83
:1017E0000948FFF733FC0948FFF7DAFE002070BD17
:1017F000E80D0020296801083D68010824680108F7
:101800005168010826680108000D0020600D0020C5
:1018100010B5FFF7BFFF044620B9064C2046FFF77E
:10182000A9FFFBE702460449044804F063FC204694
:1018300010BD00BF3412002065680108A40E00200E
:10184000C36810B504460BB19B689847204610BD8D
:1018500010B5074B044640F8543B02F01EFF2046EB
:10186000044B40F8283FFEF737FD204610BD00BF6F
:10187000206801086073010810B50A4B044640F85F
:10188000A83BFEF720FD04F19800FEF71CFD04F1D3
:101890003800FFF7D5FF04F12800FFF7D1FF2046FD
:1018A00010BD00BF3073010810B50446FFF7E4FF18
:1018B0002046BC2105F024F8204610BD10B5094B88
:1018C000036003F120025C330446C0F8BC20C0F87A
:1018D000C030BC3004F0D6FB2046FFF7CDFF2046D9
:1018E00010BD00BF18720108A0F1BC00E6E7A0F12E
:1018F000C000E3E7C36810B504460BB19B68984786
:10190000204610BDF0B50D4F002400250026C0E98B
:101910000245C0E90445C0E90045C0E90845C0E901
:101920000645C0E90A67C0E90C45C0E90E45C0E9B3
:101930001045C0E91245C0E91445F0BD0000F03F74
:1019400030B500240025C0E90045C0E90245C0E9E2
:101950000445D1E90045C0E90045D1E90245C0E9A7
:101960000245D1E90445C0E9044530BD00F1080352
:10197000F7B50446164603600D4609B3084609F05C
:101980009FFE0F2805EB0007019007D9002201A94F
:10199000204605F0CFF8019B2060A36020683A46FE
:1019A000294605F0F3F82046019B50F8182B636098
:1019B0000021D1543146FEF7C2FE204603B0F0BDEF
:1019C000014805F087F800BF7B68010838B5054677
:1019D000382001F09FF929460446103005F02CF913
:1019E00005F1180104F12800FEF7A9FE204638BDD4
:1019F00010B581680446FEF76BFE204610BD08B5A1
:101A000005F0D2F8C00F08BD2DE9F0418D680446FD
:101A10000F4690460E1D01205DB105F110014046B4
:101A2000FFF7EDFF18B1AB682E461D46F4E7EB68F3
:101A3000FAE7A0B1FB68B34204D125606660204696
:101A4000BDE8F081304604F077FF0546414605F1D8
:101A50001000FFF7D4FF20B100232360EEE73546E6
:101A6000F4E7C4E90050EAE72DE9F04385B06B469E
:101A700000F1040883E806000023C0E90238C0E949
:101A800004834FF0280904460D46037109FB02192F
:101A9000A9452CD0636933B12669294606F11000A7
:101AA000FFF7ADFF00BB2A46214602A8FFF7ACFFB7
:101AB000DDE90236A6B1ABB9B04513D006F110018D
:101AC0002846FFF79CFF07462846FFF77FFF43465F
:101AD00001463246384604F031FF636901336361E1
:101AE0002835D5E70127EFE7002EE5D1F8E72046B6
:101AF00005B0BDE8F08300002DE9F04F2DED048B1B
:101B0000CDB04FF416530093032200230221C048A6
:101B1000DFF87093BF4DDFF87083DFF870B304F027
:101B200039FA0026BC4ABD49B94801F0DFF815234F
:101B30000A221321BA480096FFF72AF9B64AB94992
:101B4000B74801F0D3F827214846FEF7F9FFB24A1B
:101B5000B549484601F0CAF80921B448FEF7F0FF3C
:101B600024ACAD4AB049B14801F0C0F81422314666
:101B7000204608F023FF0521204604F0CCFC26ABCC
:101B800093E807008DE8070041F2883194E80C00E3
:101B9000A748FEF7E9FEA04AA649A54801F0A6F825
:101BA000A54B2B60A54B6B60A54BAB60EB60002396
:101BB0002B616B61AB61A34B19680591FFF7A0F92D
:101BC0004FF400630246059900959F48FFF77AFAA3
:101BD000914A9E499C4801F089F88D4B9A4A6421AC
:101BE0004046FEF713FF8C4A9949404601F07EF8C3
:101BF000DFED987ADFF898C2DFF898E2CDED1F7A32
:101C0000CDF888C0CDF88CE0CDF878C0CDF880B0A4
:101C100021961EAF0FCF25460FC597E803008E4FC4
:101C20008E4B3B608E4B7B6085E803008D4BCDED8A
:101C3000257ACDF890C0CDF898B0CDF8A0C0CDF8F9
:101C4000A4E0A646BB60BEE80F0007F10C0CACE8B0
:101C50000F0095E803007B4B834D8CE80300186868
:101C600012F0A0FE82462846804B40F8083B8B4687
:101C7000FFF748FE56A3D3E900235946504612F019
:101C8000E9FE55A3D3E9002312F0E4FE54A3D3E9FF
:101C9000002341EC180B5946504612F0DBFE52A3CC
:101CA000D3E9002341EC190BCDE9122302460B4680
:101CB00051EC180B12F018FD4DA3D3E9002312F0DC
:101CC00011FD4DA3D3E9002312F00CFD40A3D3E98D
:101CD000002312F0E9FF5B46CDE914015246594654
:101CE000504612F0B7FE3CA3D3E9002312F0B2FE37
:101CF00043A3D3E9002312F0F7FC53EC182B12F0A6
:101D0000F1FC53EC192B12F0EDFC31A3D3E90023C5
:101D100012F0CAFF564B0022CDE91823CDE9160177
:101D20005B46524638A1D1E9000112F0DBFC28A342
:101D3000D3E9002301F1004112F0B6FF5B46CDE983
:101D40001A01524622A1D1E9000112F0CBFC20A3D6
:101D5000D3E9002312F0A8FF12AACDE91C01114615
:101D60002046FFF7EDFDDDE92423C5E90223DDE987
:101D70002623C5E90423DDE92823C5E9062318AA9B
:101D800011462046FFF7DCFDDDE92623C5E90823DF
:101D9000DDE92823C5E90A23DDE92423DFF8F8B0CB
:101DA0002949C5E90C23334B0193334B00932A4651
:101DB0003B465846FFF796F91C4A304D2149CDF86D
:101DC00008B0CDE900922E4B68E000BFAFF3008071
:101DD0007B14AE47E17AA43FEC51B81E85EBE93F96
:101DE000713D0AD7A370BD3F946588635DDCBE3F3B
:101DF0004850FC1873D7823F0188BB7A15193D3FC4
:101E0000882CD2C43BC0733F7B14AE47E17AB43F09
:101E1000E80D0020700C002098010020BD1800087B
:101E2000A40C00200D0D0008590B0008000C002028
:101E3000DC0B002041090008C4680108721C47BF80
:101E4000398EE33D9C010020000D0020D9160008CA
:101E5000B9090008405AB7BDD0120020D068010867
:101E6000D7FA62BED7FA623E68120020DC68010829
:101E70000000F03F00006143000061C3600D0020DE
:101E8000A80C0020101200208C0C0020910F023FA3
:101E90002A50D53D405AB73D280C00204C4A0968CD
:101EA0004C4F2846FFF78CFB4B4A4C49284600F024
:101EB0001DFF4B4B4B491A9518AA2046CDE9183601
:101EC0001B97FFF753FD484B484912AA2EA8CDE9AE
:101ED0001236CDE91457FFF749FD454B45490EAA87
:101EE00038A8CDE90E36CDE91057FFF73FFD424B3C
:101EF0004249CDF83080CDE90A360AAA404B0D930D
:101F000042A8FFF733FD0423099306AB009308941E
:101F100008AA06CA3B4807ABFFF7A6FD4CAD283D13
:101F200005F11800FFF7E6FC284604F027FEA5425D
:101F3000F5D10AA8FFF7DEFC0EA8FFF7DBFC314D58
:101F400012A8FFF7D7FC18A8FFF7D4FC224A2E49A5
:101F5000284600F0CBFEA968002325AACDE9272258
:101F60008DF894302693299399B118AB2046189494
:101F7000FEF7F0FB03461A469B68002BFBD1279225
:101F800003461A46DB68002BFBD16B692892299324
:101F9000269022460E491D48FEF72AFC2699204627
:101FA000FEF796FB0C4A1A49184800F09FFE194BA1
:101FB00019491A480322FEF7D1F9074A1849174868
:101FC00000F094FE4DB0BDEC048BBDE8F08F00BF77
:101FD000E80D0020F0680108980100205118000861
:101FE0001D140008A5680108E9140008AA68010882
:101FF00049150008AF6801082D0A0008B4680108F7
:10200000E4680108C40B0020F1190008C00E00208C
:102010000507000817B7D138A001002034120020AE
:102020001103000810B50446FFF748FC2046D821EC
:1020300004F066FC204610BDA0F1BC00F2E7A0F160
:10204000C000EFE7D0E90E232DE9F047C0E91023E7
:10205000D0E90C23C0E90E23D1E90023C0E90C2309
:102060008246064600F11807002400253146D1E9D2
:102070000023D1E90C0112F0EDFC02460B4620468C
:10208000294612F031FB0836B74204460D46EDD121
:10209000DAE90823DAE9140112F0DCFCDAE9128942
:1020A000DAE9062306460F464046494612F0D2FCBE
:1020B0000022002312F018FB02460B463046394638
:1020C00012F012FB02460B462046294612F00AFB8C
:1020D000DAE90A2312F0E8FD02460B46CAE9148940
:1020E000CAE91223BDE8F08708B50830FFF7AAFF58
:1020F00008BD00220023C0E90C23C0E90E23C0E97B
:102100001023C0E91223C0E91423704708B5083032
:10211000FFF7EFFF08BDFFF7EFBC00001FB5044657
:1021200010226846002108F049FC284B22681A60FA
:10213000A279012301930293122A43D8DFE802F027
:102140002C2B0A0C0E10121416181A1C1E202224F6
:1021500026282A0002231EE003231CE004231AE0A1
:10216000052318E0062316E0072314E0082312E0F5
:10217000092310E00A230EE00B230CE00C230AE0F5
:102180000D2308E00E2306E00F2304E0102302E0F5
:10219000112300E0122300930D4A0C48536823F4E6
:1021A00040036946536001F0CBF9084801F014F987
:1021B00006480A2101F070F920B9044801F0BCF981
:1021C00080B200E0002004B010BD00BF6C170020FA
:1021D0000023014073B505460C460846264904F025
:1021E000D9F92860013004D124482549362204F069
:1021F00077FA2046204904F0E9F9431C064604D149
:1022000020481F493A2204F06BFAC6F3C426EF2C8B
:10221000AE7103DC2046184904F080F929681A4B96
:10222000AC8099420FD11948036813BB0193184B36
:102230005A6C42F480725A645B6C03F480730193AD
:10224000019B0123036013480023012201604360C6
:1022500083600361836103624362C3628362C3601C
:10226000C2610363436101F00DF810B10A4804F044
:1022700099FA02B070BD00BFF46A0108E46B01086E
:10228000FC6B0108576C010800200140F41200208B
:10229000003802406C170020706C010808B5FFF789
:1022A0003DFF07EE900AB8EE677ADFED037A67EE3E
:1022B000277A17EE900A08BD0108803910B50C4C3A
:1022C000A268A468B4F1006F13460CD1131F094A29
:1022D00053F8044F42F8044F074CA242F8D1044A85
:1022E0004FF000539360103043F8201010BD00BF32
:1022F00000ED00E0FCFFFF1F90010020431C10B523
:10230000044604D106480749262204F0E9F920468C
:10231000002100F0A1F904F00F040120A04010BD3D
:102320006F650108876C010870B504464B1C0E46AA
:1023300021800ED0C1F3031000F01EF9054630468F
:10234000FFF7DCFF05F1100318356060A360E5605E
:10235000256170BDB0F9000000F0ACB938B5B0F936
:102360000030013305460C4604D10748074949228D
:1023700004F0B6F9012CB5F900000CBF214600218C
:10238000BDE8384000F068B96A650108876C01084B
:1023900038B5144B1A68116911F0020F1C4607D0AA
:1023A000D368980704D56FF00203136104F022F993
:1023B00023681A69510714D5DA68520711D56FF0EE
:1023C0000402094D1A615C6A2B68E31AB3F57A7F3F
:1023D00007D300F047FF034B1B6804F57A729A633A
:1023E0002C6038BD04180020F812002030B589B0E8
:1023F00003A801A901F098FC01F066FC00230293F8
:10240000234B01901A6C234C42F008021A641A6C98
:1024100002F008020292029A1A6A42F008021A6254
:102420001A6A22F008021A62069AA3F50B33236097
:102430004FF0FF33E360184B02B14000B0FBF3F004
:1024400001380025606013482561A560656101F0D1
:102450004DFD32201149FFF731FF114B0D484FF46C
:1024600080225A60294601F011FE0421094801F03A
:102470000DFE23680B4A596A1160126802F57A72E0
:102480009A63DA68284642F00402DA6009B030BD87
:10249000003802400418002040420F009123000839
:1024A00000E100E0F81200207FB504F033F901A844
:1024B000052104F030F8BDF90430013304D10E4891
:1024C0000E493A2204F00CF9049B029A1A609620F5
:1024D00004F07EF9BDF90430013304D10648074900
:1024E0003A2204F0FDF8029B059A1B041360962023
:1024F00004F06EF9DFE700BF6A650108CF6C0108E0
:1025000030B50546A1B00C4604F004F929466846EA
:1025100022460EF0A5F9051E03DC04F025F921B0D2
:1025200030BD094B1B6823B908480221032200F083
:1025300027FD00241DF804100448013400F04CFE6F
:10254000AC42F7D1E9E700BF48160020B4170020DD
:102550000FB407B504A951F8040B0191FFF7D0FFA0
:1025600003B05DF804EB04B0704708B501F024FF38
:10257000BDE8084000F05EBE7FB50023072853D8B1
:10258000DFE800F004111E2B3852524500932A4B0D
:102590002A481A6B42F001021A631B6B03F0010315
:1025A0000093009B44E00193234B25481A6B42F0B3
:1025B00002021A631B6B03F002030193019B37E0D5
:1025C00002931D4B1F481A6B42F004021A631B6BE7
:1025D00003F004030293029B2AE00393164B1A486C
:1025E0001A6B42F008021A631B6B03F00803039393
:1025F000039B1DE00493104B14481A6B42F0100229
:102600001A631B6B03F010030493049B10E0059303
:10261000094B0F481A6B42F080021A631B6B03F0E0
:1026200080030593059B03E00A4804F0BBF80020F3
:1026300007B05DF804FB00BF003802400000024014
:102640000004024000080240000C0240001002405A
:10265000001C0240326D010830B5431C87B00546AE
:102660000C4604D110481149812204F039F8C5F311
:102670000310FFF781FF05F00F050123AB4004F0C5
:102680000F0201930A4B53F822300293C4F3021352
:102690000393C4F3C314032301A90493059400F026
:1026A000E1FF07B030BD00BF6F650108536D010841
:1026B000A86D0108431C70B506460C4604D10D48B0
:1026C0000D49A62204F00CF8C6F30310FFF754FFDF
:1026D00006F00F05C1686B0003229A4021EA02024E
:1026E000032CC260C26828BF00249C401443C4600D
:1026F00070BD00BF6F650108536D010830B507EE6E
:10270000101A284B02681A60B5EEC07AF1EE10FA82
:1027100089B0054609D4F7EE007AB4EE677AF1EE97
:1027200010FAC8BFB0EE677A01E09FED1F7AD5EDD1
:10273000037AF8EE677A602267EE877A0192FCEE00
:10274000E77AAA68C5ED047A17EE903AB3FBF2F384
:1027500002930023039304930593069307932B7D21
:10276000013B032B1CD8DFE803F008020406042415
:1027700004E0082402E00C2400E00024094801A938
:10278000224601F013FC10B1084804F00BF86B7DF1
:102790000448214613B101F0B1FC01E001F08CFCCA
:1027A00009B030BDFC12002000000000DC6D010803
:1027B000C368ABB190ED047A07EE903AB8EE477A71
:1027C000F8EE677AC7EE277AB7EE007AF4EEC77AAA
:1027D000F1EE10FAD4BF17EE900A17EE100A704708
:1027E000002070472DE9F041D0F80080414C86B0C0
:1027F00005460E46C4F80080FFF7DAFFD8F820201F
:1028000041F21113134007465BB9D8F8202040F27B
:10281000444313402BB9D8F8003023F00103C8F823
:10282000003001A8694601F07FFA2B68324A9342D2
:102830001BD00BD8A2F50062934216D002F580623D
:10284000934212D0B3F1804F51D10EE02B4A934204
:1028500010D002D8A2F5804204E0294A934209D060
:1028600002F58062934205D041E001F02DFA00901C
:10287000049803E001F040FA00900598009A21497D
:10288000B6F5803FACBF4FF4FA730123AB60AB6881
:1028900000B15200B2FBF1F212FB03F39BB2013B19
:1028A00063606368B3F5803F02D3174803F07AFF93
:1028B000AA68731EB3FBF2F3B3F5803FE36002D363
:1028C000124803F06FFF00230A482361A36001F060
:1028D00027FB10B10E4803F065FFEE60284639462D
:1028E000FFF70CFF2268136843F00103136006B082
:1028F000BDE8F081FC120020000C004000400140C7
:102900000044014040420F00F36D01080F6E0108C2
:10291000DC6D010870B5044688B008460E4655497E
:1029200003F038FE2060013004D1534853492D2272
:1029300003F0D6FE30464F4903F048FE431C0546DF
:1029400004D14F484D49312203F0CAFEC5F3C423D8
:102950004C4A23752368C5F30045934265754FF0D3
:1029600000020BD10092484A516C41F001015164C0
:10297000526C02F001020092009A3BE0B3F1804FEA
:102980000BD10192404A116C41F001011164126CAB
:1029900002F001020192019A2CE03C498B420BD1DA
:1029A0000292394A116C41F002011164126C02F07A
:1029B00002020292029A2DE035498B420BD103921A
:1029C000314A116C41F004011164126C02F00402EE
:1029D0000392039A2EE02F498B420BD12A4B04928B
:1029E0001A6C42F008021A641B6C03F0080304938B
:1029F000049B2EE0284A93420CD100230593224BDE
:102A00005A6C42F480325A645B6C03F48033059351
:102A1000059B1EE0214A93420CD1002306931A4BDA
:102A20005A6C42F400325A645B6C03F40033069330
:102A3000069B0EE01A4A93420BD100230793124BD8
:102A40005A6C42F480225A645B6C03F4802307932F
:102A5000079B0849304603F061FD0023E3602361D2
:102A60000123A680A360204644F62061FFF7BAFE4A
:102A700008B070BD44690108286E0108406E010865
:102A8000576C01080000014000380240000400407B
:102A900000080040000C004000400140004401409C
:102AA000004801404FF47A735943FFF79BBE7047CB
:102AB0007047036870B504465B6A984723682046F0
:102AC0001B69002101229847431C0646236804D154
:102AD00020469B6A9847304670BD1B6920460021FE
:102AE0000222984723680546314600221B6920468A
:102AF0009847236820469B6A9847284670BD000087
:102B000008B5084B1B685BB907480221032200F097
:102B100037FA05484FF41651BDE8084000F0DABA1C
:102B200008BD00BF48160020B417002002284FF04F
:102B3000000309DDC21E074951F8220041F8223086
:102B400020B103685B681847184670474FF0FF30A4
:102B5000704700BF44130020022870B50C4615468C
:102B60000FDC0E4B1B680BB9FFF7CAFF6619B442A6
:102B700005D00B4814F8011B00F02EFBF7E72846A0
:102B800070BD0338074B53F8200020B10368BDE83F
:102B900070401B6818474FF0FF3070BD481600208A
:102BA000B417002044130020022810B50C460ADC9C
:102BB0000B4B1B680BB9FFF7A3FF0A4800F0F0FAB4
:102BC0002070012010BD0338074B53F8200020B1BE
:102BD0000368BDE810409B6818474FF0FF3010BDF8
:102BE00048160020B417002044130020022807DDF7
:102BF0000338064B53F8200020B10368DB68184700
:102C0000012070474FF0FF30704700BF4413002091
:102C1000022807DD0338064B53F8200020B1036873
:102C20001B691847002070474FF0FF30704700BF06
:102C300044130020022808B504D84FF400534B6019
:102C4000002008BD06F026FA092303604FF0FF308C
:102C500008BD0000014803F0A5BD00BFA86E010833
:102C600008B5012000F044F808B5FFF77EFC01F03C
:102C7000FFFD08BD704708B5FFF7FCFFBDE8084041
:102C8000FEF7C6BD0C4A136810B51844EFF308816F
:102C9000884205D3094B0C221A604FF0FF3010BD5B
:102CA0000749096821B1074C246821448842F1D2C0
:102CB0001060184610BD00BFAC010020C4220020E7
:102CC0004013002044140020074C08B52368054633
:102CD000986806F019FB2368D86806F015FB0DB15B
:102CE000FFF7E2FBFEE700BFD8010020012070479C
:102CF00008B5FFF7E9FF01207047002108F0AEB9E1
:102D000006F014BB08B501F0C1FD08BD08B501F01F
:102D1000C5FD08BD10B507F0FBF9044610B902481F
:102D200003F040FD204610BD576F010808B107F0C1
:102D3000F7B970470B4B10B5036004460A48FDF71E
:102D4000E7FF0023094A52F82310A14204BF0021E3
:102D500042F823100133402BF4D10348FDF7D8FF8C
:102D6000204610BDF86F01083813002044130020DE
:102D70002DE9F34188463649054608F035FB0446FF
:102D800010B9FFF7BDFE5EE02846324908F02CFB83
:102D900018B9FFF7B5FE012455E028462E4908F082
:102DA00023FB18B9FFF7ACFE02244CE02B48FDF7DB
:102DB000AFFF00242A4E56F82430374633B1013491
:102DC000402CF7D12548FDF7A3FF3AE04FF0FF3341
:102DD000224846F82430FDF79BFF2B783A2B06D18A
:102DE000284620496A4608F07FFA009824E06846A1
:102DF000294603F071F8684603F0B0F810B946F8B8
:102E000024001EE0684603F097F818B1684603F006
:102E10009CF811E0684603F088F8054610B946F8BA
:102E200024000EE0036868469E6803F073F828F4F7
:102E3000803201462846B04747F8240008B10334E1
:102E400001E04FF0FF34204602B0BDE8F08100BF42
:102E5000996E0108E46F0108A06E01083813002084
:102E600044130020E06F01084309203300F01F00E5
:102E700004490122824041F82320BFF34F8FBFF362
:102E80006F8F704700E100E04268184903469201E5
:102E900010B588181C688C509A6842600246D96840
:102EA00042F8081F196951605969916000F11001D9
:102EB0001A6A8A600022C261C2848284C2858285C5
:102EC000B3F91A20013201D1082305E0B3F9183013
:102ED00001330CBF04230C234B6001F03EFA20B1F8
:102EE0000348BDE8104003F05DBC10BD481400204D
:102EF000247001081A4BF7B5074653F820001E4608
:102F000000282BD0174CBD0163591A6852060AD508
:102F1000DB68590607D5144B01211B689847635994
:102F20006FF040021A6063591A6892060DD5DB688B
:102F300098060AD50C4B56F827001B6800219847C5
:102F4000084B5B596FF020021A6063591A68110729
:102F500004D55A69D20744BF5B68019303B0F0BD42
:102F60004C160020481400206C1600200020FFF7AB
:102F7000C1BF0120FFF7BEBF0520FFF7BBBF0000A8
:102F8000F0B5044685B008460E464949154603F09B
:102F900001FB48490746284603F0FCFA014638463B
:102FA00003F0DAFA2060013004D143484349662235
:102FB00003F096FB2368424A93421DD002F58062DB
:102FC00093422FD0A2F55042934241D13D4B1A6A11
:102FD00042F400321A621A6A22F400321A620022A3
:102FE00002921A6C42F400321A641B6C03F4003330
:102FF0000293029B01232AE0324B5A6A42F01002EC
:103000005A625A6A002122F010025A6201915A6CE7
:1030100042F010025A645B6C616003F0100301938C
:10302000019B15E0274B5A6A42F020025A625A6A05
:1030300022F020025A62002203925A6C42F02002CF
:103040005A645B6C03F020030393039B05236360C6
:103050003046174903F062FA2846164903F05EFA33
:10306000721C03D030460121FFF724FB6B1C03D0F8
:1030700028460121FFF71EFB4FF41653A3600023DF
:10308000E360236163612362268365832046FFF743
:10309000FBFE22680C4B9A4207D10C4B0C480122D4
:1030A0001A6021464C2207F083FB05B0F0BD00BF3B
:1030B000AC6A0108FC6801083C70010858700108FE
:1030C0000010014000380240004400404816002033
:1030D000B41700208160FFF7D7BE0000034B1960D2
:1030E0004168034B43F82120704700BF6C16002055
:1030F0004C16002038B54368012B0D4605D0052B32
:1031000006D043B91C49252407E01C49262404E0C5
:103110001B49472401E000210C461A489B01AAB133
:10312000C258D36815B943F0200301E043F04003CF
:1031300065B2D3602846FFF7C1F86D0904F00704B3
:103140000123114AA34042F8253038BDC358DA683C
:1031500035B922F02002DA60DB681A0606D538BDE0
:1031600022F04002DA60DB689B0604D42046BDE80A
:103170003840FFF779BE38BD6D2F0008732F000867
:10318000792F00084814002000E100E04368034A5A
:103190009B01D3581868C0F34010704748140020B2
:1031A00038B5446805462846FFF7F0FF0028FAD0F6
:1031B000A401034B1B595868C0F3080038BD00BF79
:1031C000481400204368034A9B01D3581868C0F391
:1031D000C01070474814002070B5456806460C467C
:1031E0003046FFF7EFFF0028FAD0AD01024B5B59E4
:1031F000C4F308045C6070BD48140020DFF820D0E0
:10320000002103E0074B5B58435004310648074B4D
:1032100042189A42F6D301F0A9F9FCF7DBFF704798
:10322000008001201C7F0108980100209C0B0020D9
:10323000FEE7000008B50A4B1A6842F400721A60F3
:103240001A6842F480621A601A6842F480721A6046
:103250000F20FFF7CBF800F003FA002008BD00BFF5
:10326000003C0240024A136801331360704700BFFC
:1032700000180020014B1868704700BF001800209C
:103280007047000010B50446002800F09E80036CD3
:1032900023B9436480F83C30FFF7F2FF236CDB0670
:1032A00000F18E80236C23F4885323F0020343F053
:1032B00002032364464B5A6822F440325A6059682C
:1032C00062680A435A60236821695A6822F480724E
:1032D0005A605A6842EA01225A605A6822F04072E3
:1032E0005A605968A2680A435A609A6822F40062D8
:1032F0009A609968E2680A439A603649A26A8A42EB
:103300000ED0996821F07061996099680A439A60BB
:103310009A6822F040529A609968E26A0A4306E08D
:103320009A6822F070629A609A6822F040529A601D
:103330009A68A16922F002029A609A6842EA410200
:103340009A60226A9AB15A6842F400625A605A68D6
:1033500022F460425A604FF4604191FAA1F1626A2E
:103360005868B1FA81F1013A8A40024302E05A6892
:1033700022F400625A60DA6A22F47002DA62E269C8
:10338000D96A013A41EA0252DA629A68216B22F460
:1033900000729A609A6842EA41229A609A6861696A
:1033A00022F480629A609A68002042EA81229A6040
:1033B0006064236C23F0030343F00103236400E003
:1033C0000120002384F83C3010BD012010BD00BF57
:1033D000002301400100000F82B00023019390F808
:1033E0003C30012B4DD0012380F83C3003689A68B3
:1033F000D10703D59A68D20712D437E09A682249D8
:1034000042F001029A60214A1268B2FBF1F202EB2B
:1034100042020192019A002AECD0019A013AF8E79F
:10342000026C22F4E06222F0010242F48072026433
:103430005A68510541BF026C22F4405242F4805256
:103440000264026C12F480521CBF426C22F006022D
:103450004264002280F83C206FF022021A600C4A7D
:103460005268D20604D00B4A934201D0002009E0F2
:10347000986810F04050F9D19A6842F080429A6002
:1034800000E0022002B0704740420F00B00100206F
:10349000002301400020014003689A6870B556057A
:1034A00004460D460BD59B68D80508D5236C43F020
:1034B00020032364002384F83C30012070BDFFF713
:1034C000D9FE064623681A68920711D4691CFAD0FF
:1034D00045B9236C43F004032364002384F83C3093
:1034E000032070BDFFF7C6FE801BA842EAD9F0E7B3
:1034F0006FF012021A60226C42F4007222649A6821
:1035000012F0405F01D0002070BDA269002AFAD1FC
:10351000DA6A12F4700F02D09B685B05F3D4236C57
:1035200023F480732364206C10F48050EBD1236C5F
:1035300043F00103236470BD0368D86C704700003A
:10354000F7B50023019390F83C30012B63D00D6850
:103550008A680123092D80F83C30ACB203680FD98A
:1035600004EB4406DF681E3E4FF0070E0EFA06FE1F
:1035700027EA0E07DF60DF68B2403A43DA600DE009
:103580001F6905EB450E072606FA0EF627EA060622
:103590001E611E6902FA0EF232431A614A68062A57
:1035A0004FEA82010CD80A445E6B053A1F21914014
:1035B00026EA01015963596B94400C435C631AE09D
:1035C0000C2A0CD80A441E6B233A1F21914026EA8C
:1035D00001011963196B94400C431C630BE00A440E
:1035E000DE6A413A1F21914026EA0101D962D96A77
:1035F00094400C43DC62164A934204D0002380F8C6
:103600003C30184622E0122D07D1124A536843F489
:103610008003536001E0022018E0A5F11003012BA4
:10362000ECD80C4A5368102D43F400035360E5D1E5
:10363000094B0A4A1B68B3FBF2F20A235343019376
:10364000019B002BDAD0019B013BF8E703B0F0BDF2
:103650000020014000230140B001002040420F0043
:10366000704700002DE9F3410F68002201239340C9
:1036700003EA07059D4240F0B9804C6824F0100C25
:10368000BCF1020F14D14FEAD20E00EB8E0E02F005
:103690000706DEF82030B6004FF00F0808FA06F8EB
:1036A00023EA08080B69B34048EA0303CEF8203048
:1036B0004FEA420E0323066803FA0EF3DB4303EAE4
:1036C000060804F0030606FA0EF60CF1FF3C48EA81
:1036D0000606BCF1010F066011D8866803EA060CE5
:1036E000CE6806FA0EF64CEA06068660466826EABA
:1036F000050CC4F3001696404CEA06064660C66800
:1037000003EA060C8B6803FA0EF64CEA0603C36064
:10371000E3006BD5394E00230193D6F844E04EF414
:10372000804EC6F844E0766C06F480460196019E11
:1037300022F0030606F1804606F59C3602F0030CE3
:10374000D6F808804FEA8C0C4FF00F0E0EFA0CFEE4
:1037500028EA0E0EDFF8AC80404519D003F1804313
:1037600003F5013398420ED003F5806398420CD0E4
:1037700003F5806398420AD003F5806398420CBF3A
:103780000423052304E0012302E0022300E00323D5
:1037900003FA0CF343EA0E03DFF864E0B360DEF8EB
:1037A0000030EE4314F4803F14BF2B433340CEF877
:1037B0000030DEF80430DFF848E014F4003F14BFB6
:1037C0002B433340CEF80430DEF8083014F4801F69
:1037D00014BF2B433340CEF80830DEF80C30A4027F
:1037E00054BF06EA03051D43054BDD600132102A74
:1037F0007FF43CAF02B0BDE8F08100BF003802406A
:10380000003C0140000002400368F7B5D9070446B8
:1038100003D423689A073BD488E0A74B9A6802F048
:103820000C02042A07D09A6802F00C02082A0BD175
:103830005B685B0208D5A04B1B689F03E9D56368F2
:10384000002BE6D1012034E19C4B22791A70636889
:103850007BB1FFF70FFD0546974B1B689E03D8D43D
:10386000FFF708FD41F28833401B9842F4D903204A
:103870001FE1FFF7FFFC05468F4B1B689803C8D577
:10388000FFF7F8FC41F28833401B9842F4D9EEE789
:10389000894B9A6812F00C0F07D09A6802F00C025C
:1038A000082A16D15B68590213D4834B1A68920711
:1038B00002D5E268012AC5D11968F82090FAA0F073
:1038C0002269B0FA80F021F0F80182400A431A60C0
:1038D0002CE0E2687A4BDAB101221A60FFF7CAFCE9
:1038E0000546754803689F0705D4FFF7C3FC401BD6
:1038F0000228F6D9BBE70268F82191FAA1F1236901
:10390000B1FA81F122F0F8028B40134303600DE01D
:103910001A60FFF7AFFC0546674B1B689E0705D58D
:10392000FFF7A8FC401B0228F6D9A0E72368180778
:1039300003D42368590744D51FE06269614B72B113
:1039400001221A60FFF796FC05465B4B5B6F9A07F6
:10395000EFD4FFF78FFC401B0228F6D987E71A60E7
:10396000FFF788FC0546544B5B6F9B07E1D5FFF7DB
:1039700081FC401B0228F6D979E7002301934E4BC6
:103980001A6C42F080521A641B6C4F4A03F0805349
:103990000193019B136843F480731360FFF76AFC83
:1039A0000546494B1B68DF050ED5484B227A1A7035
:1039B000A368BBB1FFF75EFC05463F4B1B6F9E073C
:1039C00008D5A269EAB959E0FFF754FC401B022868
:1039D000E7D94CE7FFF74EFC41F28833401B984291
:1039E000EBD944E7FFF746FC0546334B1B6F9807BE
:1039F000E7D5FFF73FFC41F28833401B9842F4D9EA
:103A000035E72D4B9B6803F00C03082B3FF41AAFEE
:103A10002F4D0023022A2B603ED1FFF72BFC0646D8
:103A20002548036899012BD447F6C07797FAA7F782
:103A30004FF44036B7FA87F796FAA6F64FF0706162
:103A4000B6FA86F691FAA1F1E369226AB1FA81F138
:103A50001A43636ABB401A43A36A5B08013BB34045
:103A60001343E26A8A401343436001232B60FFF74C
:103A700001FC0446104B1B689A0107D5002018E092
:103A8000FFF7F8FB801B0228CAD9F0E6FFF7F2FB2C
:103A9000001B0228EED9EAE6FFF7ECFB0446064BD2
:103AA0001B689B01EAD5FFF7E5FB001B0228F6D94E
:103AB000DDE603B0F0BD00BF00380240023802402E
:103AC00000004742800E47420070004070380240BC
:103AD0006000474210B51C4CA36803F00C03042B94
:103AE0002ED0082B2ED1626802F03F03626847F6A1
:103AF000C07112F4800F626891FAA1F147F6C070AC
:103B000000EA020008BF114AB1FA81F120FA01F07F
:103B10000EBFB2FBF3F20E49B1FBF3F202FB00F36E
:103B2000094A50684FF4403292FAA2F200F4403051
:103B3000B2FA82F2D04001304000B3FBF0F010BD89
:103B4000034810BD014810BD003802400024F400B5
:103B500000127A00584B1A6802F00F02914270B5B9
:103B600004460D460AD82168880710D55348836853
:103B700023F0F002A3681343836008E0CAB21A700E
:103B80001B6803F00F038B42EDD0012070BDC90705
:103B900006D4494B1A6802F00F0295425AD360E0EE
:103BA0006368464A012B03D1126812F4003F08E013
:103BB000991E0129126802D812F0007F01E012F06C
:103BC000020FE2D03D498A6822F0030213438B6062
:103BD000FFF750FB6368012B06460ED1374B9B68FD
:103BE00003F00C03042BD4D0FFF744FB41F28833DD
:103BF000801B9842F2D9032070BD022B0DD12F4BB0
:103C00009B6803F00C03082BC3D0FFF733FB41F292
:103C10008833801B9842F2D9EDE7032B14D1274B50
:103C20009B6803F00C030C2BB3D0FFF723FB41F28E
:103C30008833801B9842F2D9DDE7FFF71BFB41F286
:103C40008833801B9842D6D81C4B9B6813F00C0F0E
:103C5000F3D19EE7EAB21A701B6803F00F03AB4280
:103C600093D121684A0706D51448836823F4E052AB
:103C7000E368134383600B0741BF104A21699368CF
:103C800023F4604344BF43EAC1039360FFF722FF7C
:103C90000A4BF0229B6892FAA2F203F0F003B2FA08
:103CA00082F2D340064AD35CD840064B18600F20FE
:103CB000FEF79CFB002070BD003C02400038024033
:103CC00021710108B0010020084B4FF4E0529B68BD
:103CD00092FAA2F203F4E053B2FA82F2D340044A19
:103CE000D35C044A1068D840704700BF00380240D7
:103CF00021710108B0010020084B4FF460429B681D
:103D000092FAA2F203F46043B2FA82F2D340044A78
:103D1000D35C044A1068D840704700BF00380240A6
:103D200021710108B00100200F2303600B4B9A683A
:103D300002F0030242609A6802F0F00282609A6820
:103D400002F4E052C2609B6803F46043DB08036145
:103D5000034B1B6803F00F030B60704700380240F1
:103D6000003C0240036A23F001030362036A4268D5
:103D700070B584690D6824F07304254323F00204B0
:103D80008B6823430A4CA0420BD1CC688E6923F088
:103D9000080323434C6922F44072344323F00403A4
:103DA000224342604A6885614263036270BD00BF7E
:103DB00000000140036A23F480730362036A4268CF
:103DC00030B5C4690D6824F073042C438D6823F466
:103DD000007343EA05230C4DA8420ED1CD6823F4AD
:103DE000006343EA05234D6922F4405242EA05127A
:103DF0008D6923F4806342EA051242604A68C46117
:103E0000C263036230BD00BF00000140036A23F4B7
:103E100080530362036A30B54468C2690D6822F4B6
:103E2000E64242EA05228D6823F4005343EA053353
:103E3000064DA84202BF4D6924F4804444EA85142B
:103E40004460C2614A680264036230BD0000014000
:103E500070477047224A036890420ED0B0F1804FFD
:103E60000BD0A2F57C42904207D002F580629042CE
:103E700003D002F58062904214D14A6823F07003A7
:103E80001343174A904225D0B0F1804F22D0154AF3
:103E900090421FD002F5806290421BD002F58062F2
:103EA000904217D0104A904214D002F5806290429E
:103EB00010D002F5806290420CD003608B68C36220
:103EC0000B688362064B984204BF0B6903630123AE
:103ED00043617047CA6823F440731343EDE700BFA2
:103EE00000000140000400400040014010B50446BD
:103EF000A0B190F8393003F0FF021BB980F83820E8
:103F0000FFF7A6FF022384F839302068211DFFF750
:103F1000A1FF012384F83930002010BD012010BD1D
:103F200010B50446A0B190F8393003F0FF021BB978
:103F300080F83820FFF78DFF022384F8393020689D
:103F4000211DFFF787FF012384F83930002010BDC1
:103F5000012010BD036A23F010030362036A426864
:103F600030B584690D6824F4E64444EA05248D687C
:103F700023F0200343EA05130B4DA8420ED1CD6870
:103F800023F0800343EA05134D6922F4406242EABC
:103F900085028D6923F0400342EA850242604A6847
:103FA00084618263036230BD0000014038B590F83F
:103FB0003830012B04460D464FF0020058D0012343
:103FC00084F8383084F839000C2A4BD8DFE802F046
:103FD000074A4A4A174A4A4A294A4A4A390020683F
:103FE000FFF7C0FE23689A6942F008029A619A6955
:103FF00022F004029A6199692A690A430FE0206855
:10400000FFF7A8FF236829699A6942F400629A6160
:104010009A6922F480629A619A6942EA01229A615D
:1040200020E02068FFF7C6FE2368DA6942F0080244
:10403000DA61DA6922F00402DA61D9692A690A438D
:104040000FE02068FFF7E2FE23682969DA6942F48D
:104050000062DA61DA6922F48062DA61DA6942EADE
:104060000122DA610123002084F8393084F8380015
:1040700038BD10B50123046A8B4024EA03030362B0
:10408000036A8A401343036210BD000010B5044662
:1040900001220068FFF7EDFF2368064A934202BF42
:1040A0005A6C42F400425A641A6842F001021A60E3
:1040B000002010BD0000014010B504460122006838
:1040C000FFF7D7FF2368064A934202BF5A6C42F4B7
:1040D00000425A641A6842F001021A60002010BDC2
:1040E0000000014010B50423046A8B4024EA030356
:1040F0000362036A8A401343036210BD10B504468D
:1041000004220068FFF7EEFF23685A6C42F4004275
:104110005A641A6842F001021A60002010BD0000C3
:104120002DE9F04706683369044623F44052C3681A
:104130002169C0691343A2683361F368114362695E
:1041400023F416430A43024323F00C031343F360A2
:10415000736923F44072A369B0F5004F43EA020388
:1041600073617B4B7CD19E4203D003F580639E42FA
:1041700031D1FFF7C1FD636819254FEA4308684351
:10418000B0FBF8F8FFF7B8FD676868437F00B0FB45
:10419000F7F7FFF7B1FD63684FF064095B00684310
:1041A000B0FBF3F0B0FBF9F009FB1077FFF7A4FDCB
:1041B000B8FBF9F86268FF003237B7FBF9F707F090
:1041C000F807684352004FEA08187F00B0FBF2FA84
:1041D000FFF792FD30E0FFF777FD636819254FEA9E
:1041E00043086843B0FBF8F8FFF76EFD6768684363
:1041F0007F00B0FBF7F7FFF767FD63684FF06409D6
:104200005B006843B0FBF3F0B0FBF9F009FB1077FB
:10421000FFF75AFDB8FBF9F8FF0062683237B7FBC9
:10422000F9F707F0F807684352004FEA08187F00D3
:10423000B0FBF2FAFFF748FD454360684000B5FB6C
:10424000F0F0B0FBF9F009FB10A2D2003232B2FB61
:10425000F9F303F0070343441F44B760BDE8F08758
:104260009E4202D03B4B9E422ED1FFF745FD676830
:1042700019256843BF00B0FBF7F7FFF73DFD636802
:1042800068439B00B0FBF3F8FFF736FD63684FF01F
:10429000640968439B00B0FBF3F0B0FBF9F009FB45
:1042A00010831B013233B3FBF9F303F0F008FFF77F
:1042B00023FDB7FBF9F76268684392003F01B0FB4A
:1042C000F2FAFFF719FD2DE0FFF7FEFC67681925EC
:1042D0006843BF00B0FBF7F7FFF7F6FC636868437D
:1042E0009B00B0FBF3F8FFF7EFFC63684FF0640945
:1042F0009B006843B0FBF3F0B0FBF9F009FB1083BF
:104300001B013233B3FBF9F303F0F008FFF7DCFCD9
:10431000B7FBF9F76268684392003F01B0FBF2FA1D
:10432000FFF7D2FC454360688000B5FBF0F0B0FBBE
:10433000F9F009FB10A212013232B2FBF9F202F0DD
:104340000F0208EB02033B44B360BDE8F08700BFF7
:104350000010014000140140704710B5044640B3FE
:1043600090F8393003F0FF021BB980F83820FFF7CE
:10437000F3FF2268242384F83930D36823F40053F0
:10438000D3602046FFF7CCFE23681A6922F49042DE
:104390001A615A6922F02A025A61DA6842F400521C
:1043A000DA6000202023E06384F8393084F83A3062
:1043B00010BD012010BD0000174A1849936803F092
:1043C0000C03042B03D0082B03D0154B18E0154B1E
:1043D00016E05068536810F4800F03F03F035068F4
:1043E00014BF104A0E4AB2FBF3F30B4A5268C2F3F1
:1043F0000142C0F38810013243435200B3FBF2F391
:104400000B60054B084A9B68C3F30313D25C0B682F
:10441000D3400B60704700BF00380240B00100205D
:104420000024F40000127A003171010810B594B034
:10443000214B002101911A6C42F080521A641B6CCE
:104440001E4A03F080530193019B0291136823F4E9
:10445000404343F400431360136803F44043029362
:10446000029B0123089300B1052309934FF48003B5
:104470000F93082310934FF4A8731193042302247D
:10448000129308A807230E941393FFF7BDF978B988
:104490000F23039305904FF480530790214603A800
:1044A00004940693FFF756FBB0FA80F0400900E051
:1044B000002014B010BD00BF003802400070004062
:1044C00030B595B00024204B01941A6C42F0805214
:1044D0001A641B6C1D4A03F080530193019B0294E4
:1044E000136823F4404343F40043136013680994B2
:1044F00003F440430293029B0F9403230893012388
:104500000B9310230C9310934FF4A873119304236F
:104510000225129308A807230E951393FFF774F949
:1045200078B90F23039305904FF4805307902946E1
:1045300003A804950693FFF70DFBB0FA80F040093D
:1045400000E0204615B030BD003802400070004049
:1045500008B50120FFF76AFF30B9FFF767FF18B908
:10456000FFF7AEFF00B9FEE708BD0000174AD2F81A
:10457000883010B543F47003154CC2F888302368B6
:10458000002143F001032360A160236823F08473BA
:1045900023F4803323600F4B6360236823F480236C
:1045A00023604FF00063E16093600B4B0B4A1A608D
:1045B000FEF740FEFFF7CCFF236A43F008032362B7
:1045C000236A23F00803236210BD00BF00ED00E062
:1045D0000038024010300024B00100200024F40014
:1045E000054B186830B901221A60044B044A1A605E
:1045F000FDF7FCBE704700BF7016002004180020B5
:10460000000C004008B5044B1B680BB9FFF7E8FF2E
:10461000024B586A08BD00BF70160020000C004015
:10462000044B054A13605863DA6842F00202DA600C
:10463000704700BF000C004004180020034B044AE0
:104640001360DA6822F00202DA607047000C004062
:1046500004180020034A044B13606FF002021A6131
:10466000704700BF04180020000C0040C36810B55C
:1046700004462BB940F2E7120449054802F030F82D
:10468000E36820461B68BDE81040184741710108E7
:10469000BE630108006900F0A5BB10B504460069BF
:1046A00000F0B0FB2046FBF70EFE204610BD0000D8
:1046B000F8B5114B436100F11C0604460D46174640
:1046C00000211822304606F079F9AC42A6610BD0E1
:1046D0002046FBF7F8FD3CB1EB681BB15B6829464F
:1046E00020469847EB68E3602246394604F11400FF
:1046F00000F052FB2061F8BD6D460008024B1B68BC
:1047000003B11847704700BF7416002070470000BF
:1047100008B5024C23689847FCE700BFB4010020AD
:10472000836A9B0804BF244B1B88F0B5046B08BF49
:104730009B0804EB8306750748BF043E4FF0807268
:1047400006E90600A6F14005A6F14402A6F10C0711
:104750004FF0000E42F804EFBA42FBD1C26946F8AE
:10476000202CC278C562022A416323D0134A2260FA
:10477000114A1268D2001DD5112B1BD9A3F11002CA
:1047800051086FF007024A43A2F138033344294627
:104790004FF0CC30994204D041F8040C41F8080D98
:1047A000F8E70832AB181A1F94423CBF4FF0CC32E6
:1047B00043F8042CF0BD00BF68710108A52E5AE231
:1047C00090F82520C36A0AB1603300E020331960F5
:1047D000704710B590F82540C36A0CB1603300E013
:1047E000203383E8060010BD08B50B4800F060FBDD
:1047F0000A4B18600A4800F05BFB0A4B18600A4835
:1048000000F056FB094B186005F0DCFB0021084660
:10481000BDE80840FEF72FBAF4710108141B002010
:1048200008720108B016002070710108AC16002053
:10483000FFF76EBF10B5044600F01CFA2146024691
:10484000BDE81040014801F0ADBF00BF8C71010808
:10485000FFF754BF0449054AC1F1005303F5BE33C5
:10486000D3601161704700BFC8220020B80100204A
:1048700000F0F6FBFFF7EEFF0348002100F0A2FB7B
:1048800000F07CF9FEE70000B8010020024B4FF079
:10489000FF31186800F02CBBB0160020014B1868DF
:1048A00000F04EBBB016002080F309887047EFF38C
:1048B00009807047684680F309885A480078C00725
:1048C00014BF0220032080F314887047DFF858C11A
:1048D000EFF305831B0618BF6047EFF31483DB0774
:1048E00008BF604700DF7047DFF840C1EFF3058382
:1048F0001B0618BF6047EFF31483DB0708BF604750
:1049000000DF7047EFF30980816911F8021CE1BBF9
:1049100090E80F1010B5E047BDE81040EFF3098CA8
:104920008CE80700424B93E80600914208BF7047AD
:1049300041B91EF0100F16D13E49086820F0010061
:10494000086010E01EF0100F06BF2CED108A012049
:10495000002081F825002CE9F00FC1F82CC00CB420
:1049600001F04AF80CBC1A60D2F82CC0BCE8F00F79
:1049700092F8250000280EBF6FF0020E6FF0120EA5
:10498000BCEC108A8CF30988704710B52A4A12686B
:10499000914209D8294C54F8214090E80F10A047C3
:1049A000EFF3098C8CE80F0010BD10B500F0AEFFDE
:1049B000BDE810401E4B93E80600914208BF7047C7
:1049C000EFF3098C1EF0100F06BF2CED108A0120AA
:1049D000002081F825002CE9F00FC1F82CC00CB4A0
:1049E00001F00AF80CBC1A60D2F82CC0BCE8F00F39
:1049F00092F8250000280EBF6FF0020E6FF0120E25
:104A0000BCEC108A8CF30988704710B500F0D6FF13
:104A1000FFF7CEBF10B500F0CFFF00F0CFFFFFF7DC
:104A2000C7BF000074710108BB560008D5560008C6
:104A30005422002034EF00E000000000FCFFFFFFE4
:104A40000B4A136830B5002433B19D68A94203D3E3
:104A50001C46491B1B68F7E70360816013B19D6822
:104A6000691A99600CB1206030BD106030BD00BF84
:104A7000102200200C4A1368002123B1834205D084
:104A800019461B68F9E74FF0FF307047036809B11A
:104A90000B6000E0136003681BB1996882680A44E8
:104AA0009A600020704700BF10220020C0B1431C54
:104AB00011D00C4B984211D80B4B1B684FF47A71F4
:104AC0005A1E01FB0020B0FBF3F34FF6FE70834249
:104AD00006D898B270474FF6FF7070474FF6FE70D9
:104AE000704700BF00093D006471010838B18307B9
:104AF00004D10378002B18BF0020704700207047B6
:104B000038B50E4D2878B0B90D4C236893F82410B1
:104B100000F0E8FF2368DA78FF2A03D1DA6A20324E
:104B200082F309886168064A09B982E80A0001F03F
:104B30008DF901232B70002038BD00BF0D2200200D
:104B400054220020014B1878704700BF0D2200202E
:104B500010B5EFF3108434B9EFF305841CB9EFF30B
:104B60001484E40702D4034B187810BDDFF808C0A2
:104B700000DF10BD0D220020454B000810B588B0A5
:104B8000EFF31083002B33D1EFF30583002B2FD1EC
:104B9000FFF7DEFF28B9194C246814B1646804B12A
:104BA000A047EFF3148404F00304022C0CD0032C70
:104BB00016D0012C1ED008AC84F30988104C247840
:104BC000E40705D5022404E00D4C2478E4070BD457
:104BD000032484F31488BFF34F8FBFF36F8F03E078
:104BE000074C2478E40705D4DFF818C000DF02E0A2
:104BF000822000E0FF2008B010BD00BF442200204A
:104C000074710108014B000870B50B461646024648
:104C100008B9002070BD00680028FAD0B2F904403D
:104C2000E51CADB2062DF4D8D5680DB1126900E0CF
:104C30002A46211D41EA052100F092FF0028E8D014
:104C4000094B0A4A013853F82040E36A5A63084B7B
:104C50001B6833B19B6823B13146E0789847E06325
:104C600000E0E663204670BD501A0020114F000896
:104C70004422002008B500F02DFF18B10138024B86
:104C800053F8200008BD00BF501A002010B5FFF7F0
:104C90002DFF044670B1084B1B681BB1DB680BB1DC
:104CA000C06B9847E07800F0B1FFFF280CBF81206F
:104CB000002010BD802010BD4422002010B5A8B1F6
:104CC000036883B1446864B101290ED8084B1B689E
:104CD0004BB123794BB923600123237161712261A8
:104CE0006061204610BD184610BD002010BD00BFF9
:104CF00004220020F8B58307044624D118B321B359
:104D0000144B1A68002312F1FF3643F1FF374FF4BA
:104D10007A70E0FB01673046394610F0E3F92379F9
:104D2000012B054606D0022B11D12046FFF7A2FE2B
:104D300068B902E002232371E06020462946FFF7AC
:104D40007FFE0020F8BD8020F8BD8620F8BD8120C0
:104D5000F8BD00BF64710108830710B504460AD18D
:104D600048B10379012B03D0022B06D1FFF782FE55
:104D70000020207110BD802010BD812010BD830750
:104D800004D128B1436901691B6803E0002300E0F6
:104D90000346194618467047F0B507460E461546B5
:104DA000EFF31084B4B9EFF3058EBEF1000F13D109
:104DB000EFF31484E40706D4084C24781CB9BDE84A
:104DC000F040FFF77BBF384631462A46DFF810C077
:104DD00000DFF0BD0020F0BD2046F0BD0D22002018
:104DE000BD4C000810B5EFF3108434B9EFF305841F
:104DF0001CB9DFF80CC000DF10BD822010BD000020
:104E0000F54C000810B5EFF3108434B9EFF30584C6
:104E10001CB9DFF80CC000DF10BD822010BD0000FF
:104E2000594D000810B504460846DFF80CC000DFF5
:104E300084E80300204610BD7F4D000810B548B13E
:104E4000046824B1237823B9204600F058FC20469A
:104E500010BD002010BD70B510F0030405460E46CD
:104E600011D180B10378032B0DD10846FFF71EFE48
:104E70000146284600F0BCFC012806D1002E14BFD4
:104E8000C120812070BD802070BD204670BD82078A
:104E900008B50AD148B10378032B06D100F038FCDD
:104EA000FF280CBF8120002008BD802008BD000025
:104EB00070B50546EFF3108494B9EFF305868EB90B
:104EC000EFF31484E40706D4074C24781CB9BDE83A
:104ED0007040FFF7B3BF2846DFF810C000DF70BD99
:104EE000002070BD204670BD0D2200203D4E000800
:104EF00010B5EFF3108434B9EFF305841CB9DFF873
:104F00000CC000DF10BD822010BD0000574E00080D
:104F1000084808B54FF0FF310068FFF7E9FFDFF8F8
:104F200018C000DF0446FFF793FC2046DFF80CC0F2
:104F300000DFFEE708220020754C00088D4C0008B9
:104F400010B5EFF3108434B9EFF305841CB9DFF822
:104F50000CC000DF10BD822010BD00008F4E000885
:104F60002DE9F04180460F461646EFF31084F4B960
:104F7000EFF30583E3B9EFF31483DB0706D40E4B9D
:104F80001B781BB9BDE8F041FFF73EBE0B4D4FF05B
:104F9000FF312868FFF7ACFF404639463246DFF85C
:104FA00020C000DF04462868FFF7CAFF00E00024A5
:104FB0002046BDE8F08100BF0D220020082200201D
:104FC000094C00080022FFF7CBBF10B5044660B1C2
:104FD000016859B1406860B103784BB90431890068
:104FE00089B200F039FA606810BD10BD084610BDE6
:104FF000002010BD38B5114C23780BB900F0ACFE81
:105000000F4B25781B68FF229A708DB929460D48F1
:10501000FFF7DBFF0C4B2A46186029460B48FFF7C9
:10502000F3FD0B4B18600B48FFF742FF0A4B18606B
:1050300001232370094B0020187038BD0C2200207A
:1050400054220020F8710108101B0020787101081B
:10505000042200200C720108082200200D220020EA
:1050600010B5EFF3108474B9EFF305845CB9EFF376
:105070001484E40703D4BDE81040FFF7BBBFDFF89A
:105080000CC000DF10BD822010BD0000F54F0008ED
:105090002DE9F04F0C4685B08046E8B10378012B2E
:1050A0001FD10846FFF702FD02A90246404600F064
:1050B000E1F9012806D10020002C0246034618BF62
:1050C000402003E0002002460346102002990446D7
:1050D0000D4616461F4608E080240546064607464C
:1050E00003E0002580242E462F46204629463246DE
:1050F0003B4605B0BDE8F08F70B50E461446054638
:1051000060B15AB90378012B08D100F009FA38B11F
:105110002846314600F008FA204670BD802070BD58
:10512000812070BDF8B5114B1C681E46E4B1A36820
:105130000F4F013BA360A268B2B92568386835609B
:105140002146FFF7D9FF10B10420FFF773FB637905
:10515000012B04D1E1682046FFF772FC01E0012336
:1051600023710DB12C46E6E7F8BD00BF10220020E8
:10517000101B00207FB504461646084601B112B147
:105180008023236010E00B78012BF9D102A900F0F5
:10519000D2F9042808BF102301AD14BF0196019372
:1051A00095E8070084E80700204604B070BD0000C1
:1051B00038B504461546EFF3108010B9EFF30580BB
:1051C00020B12A462046FFF7D5FF06E008461146E3
:1051D000DFF80CC000DF84E80700204638BD00007F
:1051E000915000087FB50A4C21684FF0FF3203A8A8
:1051F000FFF7DEFF039B102BF6D1049901A8FFF700
:1052000011FE019B002BEFD002989847EBE700BFFF
:10521000101B002010B5038B42781943062A044660
:105220000183438B03D133EA010219D105E0052A3A
:1052300016D111EA030213D0428321EA030121832C
:10524000204600F0CFF8012320466370628B0821CE
:10525000FFF7BFFA21460348BDE8104000F004B84C
:1052600010BD00BF1422002030B502788C7843684E
:10527000013AD2B22BB19D78A54202D318465B68A1
:10528000F8E7022A4B60416003D803B19960886057
:1052900030BD00238B6030BD02784368013A596805
:1052A0004160022A4FF0000204D809B188605A60B8
:1052B0009A6000E05A60184670470000034B5A6835
:1052C0004260002282605860704700BF14220020B4
:1052D000114BDA6810B50AB19A8A0CE000248A1AD8
:1052E000C460D86003619A82848210BD002CF5D01E
:1052F000A38A1A4423468A42DC68F7D3C460D86084
:10530000C468036104B12061521A92B28282998A00
:105310008A1A9A8210BD00BF2C220020F8B5174DC2
:10532000EB68002B29D0AB8A154F013BAB822E4690
:10533000AA8A12BBF46804B3A3683BB161685960E0
:10534000616809B18B6062600023A36021460D484B
:10535000FFF78AFFA38AAB826378042B01BFE38A3D
:105360003A689B18A38201236370E368EB60002214
:105370000BB11E61E2602261DAE7F8BD2C22002049
:105380009C2200201422002083682BB142685A60BE
:1053900042685AB193607047054B5A68904202D1F7
:1053A00042685A6070471346002AF6D1704700BF22
:1053B0001422002010B58468014624B94378012BDB
:1053C0000DD1074C03E023780BB9A468FBE708462E
:1053D000FFF7DAFF2046BDE81040FFF745BF10BDDC
:1053E00014220020036910B573B1C268DA60C26884
:1053F0003AB19C8A818A2144998213610023C36057
:1054000000E09A820023036110BD000070B4114BCC
:10541000DD78EFF31086EFF3108272B69A7895423A
:1054200011D901329A701A78541CA54208BF002481
:105430001C7006B962B6954207D903EBC20370BC73
:10544000586099607047002EF4D0022070BCFFF7BE
:10545000F1B900BF8C1A00200123103903708908AC
:105460000023437083704360038143818381C18142
:105470007047000070B5858904461646002D36D069
:1054800043891A1D013350F822200A60C2899BB259
:105490009A42438104BF002343814368EBB14378C0
:1054A000022B1AD1FFF7F8FE00210546FFF788F915
:1054B0002389E9691A1D013344F82210E2899BB25D
:1054C0009A42238108BF0023284608BF2381FFF7A3
:1054D00089FF284600F0C0FA1CE0EFF31080EFF3DC
:1054E000108372B6013DA581A0B962B670BD9AB1B4
:1054F00042680A4B1AB11968FFF7B6FE05E01B684F
:1055000043605A609860012343700821304600F0E0
:10551000C7FA01E0002070BD012070BD54220020B8
:10552000C2898089101A704708B5FFF76FFFBDE880
:10553000084000F0D9B9838910B5044603B3438904
:10554000043350F823300B604378022B04D1002140
:10555000FFF75CFF00F0C8F9EFF31083EFF3108260
:1055600072B6A289013AA28103B962B66389E2895F
:1055700001339BB29A42638104D10023638101E02D
:10558000184610BD042010BD436870B504460E4691
:10559000002B4CD04578022D1CD0032D0AD0012DB4
:1055A00062D1FFF779FE044632461021FFF711F968
:1055B000657037E0084600F080F80546002853D0B3
:1055C0002046FFF769FE29460446FFF7F9F8012354
:1055D000637027E0FFF760FE00210546FFF7F0F853
:1055E0002389E9691A1D44F82210EFF31082EFF3C2
:1055F000108172B6A1890131A18102B962B6E28936
:1056000001339BB29A42238104BF002323810123EB
:105610006B702846FFF7E6FE29461448BDE8704047
:10562000FFF722BE2046FFF7DDFE2146F5E7808921
:10563000E189884213D223891A1D44F82260EFF3CE
:105640001082EFF3108572B60130A08102B962B604
:1056500001339BB2994208BF0023238170BD032010
:10566000BDE87040FFF7E6B870BD00BF142200200F
:10567000002ABBBF22F000420732033222F00702A9
:10568000A8BF22F0030210B5B4BF10230C2392B1BF
:10569000D4188C420FD80144034454424160036043
:1056A000826021449818814202D300510346F9E7F1
:1056B0000020186010BD012010BDEFF3108372B6FA
:1056C000026803F001030AB11168016003B962B610
:1056D00010467047814203460DD3426891420AD278
:1056E000EFF3108072B61A680A6010F001001960BA
:1056F00003D162B670470120704700207047032332
:1057000003700023438043608360C36070470000E0
:105710002DE9F84343880546002B61D0324F81685C
:105720003A6891425CD1013B9BB2438013B10020A7
:10573000BDE8F8830B6A984203D1C3680B6206E0A8
:10574000134623B1DA689542FAD1EA68DA6091F833
:1057500024300C6A3CB162681AB19278934238BF27
:105760001346E468F6E78B706A68DFF8808042B31E
:105770002846FFF791FD21460646FFF721F83046FF
:10578000FFF730FE336AEB604FF001093968D8F853
:105790000430A5F80290AE6035628A789B789A4210
:1057A00001D3304619E04046FFF75EFD31464046E2
:1057B000FFF75AFD0C4B1B6883F8019086F80190A7
:1057C0000AE0D8F8042092789A42B0D94046FFF710
:1057D0004BFD3B6801225A70204600F03DF9A6E7D8
:1057E000FF20BDE8F88300BF5422002014220020CF
:1057F000438870B504460E46144D2BB92A68826062
:10580000116AC160106203E0826829688A4203D18C
:1058100001336380002070BDB6B18B7891789942D6
:1058200003D293708068FFF7C5FD626822B12968D2
:105830002046FFF719FD03E02B6863605A609C6007
:105840000921304600F02CF9012070BD54220020BF
:10585000034B00221A60034A1268DA80704700BFC7
:1058600048220020F071010808B50F4B0F485A6814
:105870000F4B1968914205D01A60DA88511E0268F0
:105880000A449A809A8803889A420BD1084B0648AA
:1058900000221A60FFF700FDBDE8084001460248FB
:1058A000FFF7E2BC08BD00BF142200209C220020AC
:1058B00048220020426810B57AB1FFF7EDFC04469B
:1058C000FFF790FD012161702046FEF779FF214628
:1058D0000448BDE81040FFF7C7BC4288013242804F
:1058E00010BD00BF14220020054B1B7823B9054BC7
:1058F0004FF080521A607047034B01221A707047B4
:10590000E516002004ED00E0E41600201B4B1868AB
:1059100070B501231A4C4370FFF7D0FC657826461A
:10592000A3780BB306EBC503586802781AB9198936
:10593000FFF770FC07E0012A03D19968FFF724FE06
:1059400001E0FFF7B7FFE37801359D4208BF00256E
:10595000EFF31083EFF3108272B6A278013AA270CF
:10596000002BDDD162B6DBE7054B06485D70FFF723
:1059700093FCBDE8704000F055B800BF54220020F1
:105980008C1A002014220020084B1A68084B1A6059
:1059900000225A60072243F8042C064A136843F099
:1059A0007F4313604FF0FF30704700BF0072010863
:1059B00014E000E020ED00E07047000008B50B4B5C
:1059C000186801234370FFF779FCFFF74DFF084A81
:1059D000136801331360FFF7A1FCFFF7A3FB054831
:1059E000FFF75AFCBDE8084000F01CB85422002024
:1059F0009C22002014220020084B1B68DA78022A1F
:105A00000AD01A6BDB6A9A4203D81268044B9A4296
:105A100002D00120FEF70EBF704700BF54220020C5
:105A2000A52E5AE2054B586002234370044B1B68B5
:105A30001BB11B690BB1C06B184770475422002083
:105A40004422002008B50348FFF726FCBDE80840C3
:105A5000FFF7E8BF1422002070B5044618B9BDE86E
:105A60007040FFF7EFBF0C4EA278306883789A42FF
:105A70004FF0010508D9FFF721FC33685D7020461F
:105A8000BDE87040FFF7CEBF657021460348BDE812
:105A90007040FFF7E9BB00BF542200201422002011
:105AA00038B50D46014680B14FF6FF739842074C5A
:105AB00002D02068FFF70CFC236805485D70FFF7F3
:105AC000EBFBBDE83840FFF7ADBF38BD54220020E6
:105AD00014220020024B186800B1C078704700BF44
