:020000040800F2
:1000000000800120193400084D3400084D340008E8
:100010004D3400084D3400084D3400080000000045
:100020000000000000000000000000006D4B000810
:100030004D34000800000000134C0008734C000809
:100040004D3400084D3400084D3400084D3400088C
:100050004D3400084D3400084D3400084D3400087C
:100060004D3400084D3400084D3400084D3400086C
:100070004D3400084D3400084D3400084D3400085C
:100080004D3400084D3400084D34000800000000D5
:100090000000000000000000000000004D340008D7
:1000A0004D3400084D3400084D3400084D3400082C
:1000B0004D3400084D3400084D3400084D3400081C
:1000C0004D3400084D3400084D3400084D3400080C
:1000D0004D3400084D3400084D3400080000000085
:1000E0004D3400084D3400084D3400080000000075
:1000F0000000000000000000000000004D34000877
:10010000000000004D3400084D3400084D34000854
:1001100000000000000000000000000000000000DF
:100120004D3400084D3400084D3400084D340008AB
:100130004D34000800000000000000000000000036
:100140000000000000000000000000004D34000826
:100150004D3400084D3400084D3400084D3400087B
:100160004D3400084D34000800000000000000007D
:10017000000000000000000000000000000000007F
:10018000000000004D3400080000000000000000E6
:100190004D34000810B5054C237833B9044B13B126
:1001A0000448AFF300800123237010BDA00B002092
:1001B00000000000CC7E010808B5034B1BB10349C9
:1001C0000348AFF3008008BD00000000A40B00202E
:1001D000CC7E0108154B002B08BF134B9D46A3F5A1
:1001E000803A00218B460F461348144A121A0AF02F
:1001F00015FD0F4B002B00D098470E4B002B00D065
:1002000098470020002104000D000D48002802D06E
:100210000C4802F07EFE0AF009F82000290002F0E6
:1002200038FE02F073FE00BF0000080000800120CD
:1002300000000000852E0008A00B002028230020CD
:10024000132F000800000000F0B5002384681D464D
:1002500001269C420CD0426852F8232091685768CE
:100260000131B942916024BF167395600133F0E704
:10027000F0BD034607C983E807007047704710B414
:10028000426881685410034601EB6200D20748BF00
:100290000A591B685DF8044B48BFD3581847027BC6
:1002A00022B103680022DB68027318477047000020
:1002B000034AC0E90021002282600273704700BF38
:1002C000D46501087047C36810B504460BB19B683C
:1002D0009847204610BD000038B50546064B45F846
:1002E000183B044606F0B2F92846FFF7ECFF20461B
:1002F00006F00CFA204638BD0076010810B5044619
:10030000FFF7EAFF2046282106F02EFC204610BD0C
:1003100038B50546054B45F80C3B0446284606F023
:1003200095F92846FFF7D8FF204638BDC465010877
:1003300010B50446FFF7ECFF2046342106F014FC0C
:10034000204610BD38B5CB6804460D460BB15B683E
:100350009847EB68E360204638BD000070B52DED8E
:10036000028B08EE103A1C4B826000F10C0588B03D
:100370000446C0E90031284606F0A8F9174A184B90
:10038000E3600023CDE900236946236304F12406DA
:10039000144B039304A80294FFF7D4FF3046FFF7F1
:1003A00092FF04A93046FFF7CDFFDFED0F7A28EE6C
:1003B000278A2846FCEEC87A17EE901A06F032F922
:1003C00004A8FFF780FF6846FFF77DFF204608B0CE
:1003D000BDEC028B70BD00BFC46501084902000876
:1003E00000760108B065010800247449704703468F
:1003F00007C983E807007047704710B442688168F6
:100400005410034601EB6200D20748BF0A591B682B
:100410005DF8044B48BFD358184710B54FF48871A6
:10042000044606F0A1FB204610BD00F1080373B599
:100430000360044608460D460BF082FA0F2805EBD0
:100440000006019007D9002201A9204606F0A6FC6B
:10045000019B2060A36020683246294606F0CAFC52
:10046000019B2268636000212046D15402B070BD18
:1004700070B5044672B6FF263546206905F0D8FFF0
:1004800080B3D4F81831D4F81C110133B3FBF6F261
:10049000C2EB02229B1A8B4224D02069BC3005F0AB
:1004A0004BFFD4F81831D4F81C110133B3FBF6F22A
:1004B000C2EB02229B1A8B42DFD0D4F818312344BE
:1004C000C0B21876D4F818310133B3FBF5F2C2EBA1
:1004D00002229B1AC4F81831D4F820310133C4F831
:1004E0002031CAE762B670BDD0F8082110B50132DC
:1004F000D0F80441FF23B2FBF3F1C1EB0121521A02
:10050000A24215D0D0F808210132B2FBF3F3C3EBBD
:100510000323D31AC0F80831D0F8083103441B79FB
:10052000D0F80C21013ADBB2C0F80C21184610BDFE
:100530000023FBE7F8B5044672B6FF2600F5927576
:10054000206905F086FFB0B1D4F82C32D4F8281217
:100550000133B3FBF6F2C2EB02229B1A8B420AD0A4
:10056000206900F1BC072846FFF7BEFF0146384668
:1005700005F0CEFEE4E762B6F8BD00002DE9F043D9
:10058000D0F81C31D0F818110133FF22B3FBF2F27E
:10059000C2EB02229B1A8B42ADF5097D04460BD0BB
:1005A0001430FFF7A1FF2328074609D184F834024D
:1005B00004F23523C4F834330DF5097DBDE8F0832A
:1005C000D4F8343304F54D729342F5D00A286ED135
:1005D00013F8032C3B2A6AD113F8022C3B2A66D16C
:1005E00013F8013C0D2B62D104F50D78334908ABAB
:1005F0006A4640460AF0A8FF022856D1694648A834
:10060000FFF713FF04F54F79D4F840634D4656B118
:1006100006F1100048A906F0FBFB0028AABF3546EA
:10062000F668B668F3E7A94508D005F1100148A8B7
:1006300006F0EEFB35EA200528BF4D4648A806F037
:10064000D1FB4D4531D01E4B48AA03F1100C186860
:100650005968164603C6083363453246F7D11B88EE
:100660003380EE2200210DF599700AF0D7FA48A9DF
:1006700002A8FFF7DAFE6B6B05F128062BB91149CA
:10068000114840F21D6206F05FF96B6B48AA1B68C7
:1006900008A93046984720690C4948AB6A46BC30E7
:1006A00005F05CFE02A806F09DFBC4F83483D4F884
:1006B00034331F70D4F8343301337BE7E465010829
:1006C00068660108EE6501083E6601084366010898
:1006D000F8B505460C46A4B1E1682846FFF7F8FFD7
:1006E000636BA66804F110071BB19B6804F1280036
:1006F0009847384606F076FB204602F025FC344643
:10070000E9E7F8BD10B5074BD0F840130360044685
:1007100000F54E70FFF7DCFF2046FFF7D3FD2046C3
:1007200010BD00BF7067010810B50446FFF7EAFF6F
:1007300020464FF4547106F017FA204610BD38B524
:10074000CB6804460D460BB15B689847EB68E360E5
:10075000204638BD2DE9F047074638200D4616469D
:10076000984602F0E5FB05F110010446103006F052
:1007700097FB05F1280104F12800FFF7E0FF2B7833
:10078000E96823700023C4E90233666029B1434657
:1007900022463846FFF7DEFFE060AE68A1464FF024
:1007A000000A0EB3382002F0C3FB06F11001054623
:1007B000103006F075FB06F1280105F12800FFF75F
:1007C000BEFF33782B70C5E902AAC9F80850C5F8F6
:1007D0000490F16829B143462A463846FFF7BAFF2C
:1007E000E860B668A946DCE72046BDE8F08700006F
:1007F0007FB504460D4600211646FFF759FD394BDB
:100800002360394B2561636104F1180104F217106C
:10081000002201F8012B8142FBD1FE21C4F81821EE
:10082000C4F82431C4F81C1104F59473C4F82021D1
:10083000002504F2272203F8015B9A42FBD1FE2334
:10084000C4F82852C4F82C3204F50D734FF48072AA
:100850000021C4F8305218460AF0E0F9B168C4F833
:10086000340304F54F72C4E9D052C4E9D22504F52B
:100870004E7084F83C53B1B16B460090FFF76AFFAD
:1008800003461A469B68002BFBD1C4F84423034659
:100890001A46DB68002BFBD17369C4F84823C4F8FF
:1008A0004C33C4F840030025104B114E20690093CF
:1008B0002A466946CDE90154039605F04FFE684685
:1008C000FFF701FD0B4B206901226946CDE9003598
:1008D000CDE9024605F042FE6846FFF7F4FC2046EB
:1008E00004B070BD70670108546601087104000807
:1008F0005C6601083505000838B5B0F910300133E1
:10090000044604D10C490D48482206F01DF8A3699D
:100910001D6863691D40B4F91030013304D10649E4
:1009200006483A2206F010F8636915B9E2691360C7
:1009300038BD226A1B04FAE780670108EA670108EC
:1009400010B5034B03600446FFF7BCFC204610BD06
:100950000C68010810B50446FFF7F2FF2046242179
:1009600006F002F9204610BD82B070B5054604AC11
:1009700084E80C002C46FFF79BFC04AE0B4B44F8BC
:10098000103B0FCE0FC433682360B5F9103001332C
:1009900004D1074907483A2205F0D6FFEB696A6996
:1009A0001A602846BDE8704002B070470C68010824
:1009B00080670108EA67010810B5034B036004462D
:1009C000FFF780FC204610BD4868010810B50446BA
:1009D000FFF7F2FF2046182106F0C6F8204610BDAA
:1009E000437B10B5044673B1006903685B689847A0
:1009F00014F018F9024660690B46BDE81040024940
:100A0000BC3005F0ABBC10BD1C68010870B50446D5
:100A10001D461646FFF74CFC034B23600023C4E938
:100A200004656373204670BD4868010837B500232C
:100A300005461446084601AA094901930AF084FDB7
:100A400001280BD1019B0749002BD4BF00230123B0
:100A50006B7320460AF056FD03B030BD0249F8E73B
:100A6000246B01082B6801083168010810B5034B9D
:100A700003600446FFF726FC204610BD7468010899
:100A800010B50446FFF7F2FF20465C2106F06CF833
:100A9000204610BD37B5002305461446084601AA76
:100AA000094901930AF050FD01280BD1019B074928
:100AB000002BD4BF002301236B7320460AF022FDD4
:100AC00003B030BD0249F8E7246B01082B68010828
:100AD0003168010882B000230C4A0193116C41F087
:100AE00001011164126C836202F001020192019A09
:100AF0004FF0804202622022C2624FF4A862C0E935
:100B00000C334262203002B003F00ABB00380240CE
:100B100038B504461546FFF7CBFB054B2360002391
:100B2000204663732561FFF7D5FF204638BD00BF1F
:100B30007468010838B500252A464561022104463B
:100B4000104802F075FF0A2001F014FE0122022174
:100B50000C4802F06DFF0A2001F00CFE2A460948FD
:100B6000084D022102F064FF0421284602F05AFFDA
:100B7000636928B101336361012001F0FBFDF3E7F4
:100B8000184638BD00000240437B37B50446F3B138
:100B9000FFF7D0FF14F024F811A3D3E9002314F0D9
:100BA00099F80D4B002214F095F814F08BFB07EE2A
:100BB000900A23690949FDEEE77A00240025CDE972
:100BC000004517EE902A03F1BC0005F0C7FB03B007
:100BD00030BD00BFAFF300800000E03F586801085F
:100BE0009CC420B07268A13F07EE901A90ED077A7E
:100BF000B4EEE77AF1EE10FA09D890ED087AB4EE87
:100C0000E77AF1EE10FAACBF012000207047002017
:100C1000704700000000000013B50446019105F084
:100C2000ADFE019813F0FEFF0BA3D3E9002314F0EF
:100C300051F80BA3D3E9002313F096FE14F042FB06
:100C40000146201D01F068FE02B0BDE8104005F02D
:100C5000BFBE00BFAFF3008040BD19355F254F3FD9
:100C6000DD2406819543B33F7FB51D46124B0291AB
:100C7000044640F8043B16460190039005F07EFEC2
:100C8000DDE9010101F054FF05F0A2FEE6612562F5
:100C900005F074FE0198142102F012F805F098FE98
:100CA00005F06CFE0198054901F036FE05F090FE56
:100CB000204604B070BD00BF8C680108AC1C9A3D92
:100CC00010B5034B034A0446FFF7CEFF204610BD84
:100CD0000000D0410000D0C17047704707EE901A65
:100CE00090ED157AB4EEE77AF1EE10FA09D890EDAE
:100CF000167AB4EEE77AF1EE10FAACBF01200020CC
:100D0000704700207047A0F10400FFF7E7BF10B55F
:100D10000C21044605F028FF204610BD38B5B0F977
:100D20000030013304460D4604D1064906483A22F4
:100D300005F00AFE636815B1E268136038BD2269E8
:100D40001B04FAE780670108EA670108B0F9003080
:100D5000013310B5044604D106490748482205F07E
:100D6000F3FDA3681A6863681A4214BF01200020CB
:100D700010BD00BF80670108EA67010838B500F1BF
:100D800020052DED028B0446284608EE101AFFF7C9
:100D9000DDFFB0FA80F14909284604F13405FFF778
:100DA000BDFF2846FFF7D2FFB0FA80F14909284677
:100DB000FFF7B4FF05F0E2FDF0EEC87A04F1080099
:100DC00017EE901A01F0A8FDBDEC028BBDE838408B
:100DD00005F0FEBDA0F10400FFF7D0BF10B5002163
:100DE00004462030FFF79AFF04F134000021FFF79A
:100DF00095FF05F0C3FD04F10800034901F08CFDE7
:100E0000BDE8104005F0E4BD0000C842A0F10400B8
:100E1000FFF7E4BF38B52DED028B08EE101AB5EEE2
:100E2000C08AF1EE10FA044600F1340500F120000A
:100E300016D50021FFF772FF01212846FFF76EFF4C
:100E400005F09CFDF0EEC87A04F1080017EE901A48
:100E500001F062FDBDEC028BBDE8384005F0B8BD85
:100E60000121FFF75BFF0021E7E7A0F10400FFF796
:100E7000D1BF38B5142204460D46002109F0CEFE3C
:100E80002046294605F07BFC204638BD704700000F
:100E9000034610B553F8042B044612B903602068CA
:100EA00010BD9A42FBD003490348592205F04CFD7E
:100EB000F5E700BF94680108E868010808B5024832
:100EC000FFF7E6FF08BD00BF4817002008B502483D
:100ED000FFF7DEFF08BD00BF4817002073B50546C9
:100EE000094B0A4E45F8043B044630460191FFF792
:100EF000CFFF0199284601F06BFA3046FFF7C8FF93
:100F0000204602B070BD00BF0469010848170020E8
:100F1000F7B50446194801911D4600F10803243035
:100F20002360606004F10807164605F027FD01996B
:100F3000384601F0FDFD05F04BFD314604F120007F
:100F4000FFF797FF294604F13400FFF792FFBDF940
:100F5000201004F14800FFF7C1FF4FF03F436365E5
:100F60004FF07C53A36505F009FD3846C82101F018
:100F700047FD05F02DFD204603B0F0BD14690108C2
:100F800038B5134D2DED028B04462846FFF780FF40
:100F900004F14C0001F080FA08EE100A2846FFF731
:100FA00077FFF1EE047A68EE277A17EE900A13F0D5
:100FB00039FE05A3D3E9002313F0B6FF14F082F93C
:100FC000BDEC028B38BD00BFEC51B81E85EBC13FB4
:100FD00048170020704710B50446006810B1036838
:100FE000DB689847204610BD014B586A00B2704735
:100FF00000080040014B00225A6270470008004080
:1010000010B50421044605F0AFFD204610BD0000D8
:10101000184A136B43F002031363174B196841F42A
:1010200020411960596841F0C0015960996841F444
:1010300070419960D96841F42041D960196A41F042
:1010400008511962596A5962136C43F0040313641E
:101050000A4B01221A6003229A604FF2F1129A6140
:1010600011210022DA6119624FF6FF719A62D9628A
:101070005A627047003802400004024000080040F5
:1010800010B5084C236853B9042001F051FF064AFB
:1010900002602060FFF7BCFF044B22681A602068E2
:1010A00010BD00BFBC0B002050690108C00B002020
:1010B000024A0349034801F027BF00BF98010020FE
:1010C000D70F0008C00B00200020704710B5044661
:1010D000406803681B689847208160680368BDE822
:1010E00010405B681847B0F908007047B0F9083045
:1010F00007EE103A038A07EE903AB8EEC77AF8EE98
:10110000E77AC7EE276AD0ED037AC6EEA77A17EE24
:10111000900A704713B50446FFF7D8FFB4F90830BA
:10112000A06D07EE903A0368F8EEE77A01A9CDEDDD
:10113000017A1B68984707EE900AFDEEE77A17EEF2
:10114000903A18B213F05CFDC4E9140102B010BD6E
:1011500008B5D0E9140114F06DF800B208BDA0F193
:101160004800FFF7F5BFD0B50446008A13F048FDEC
:1011700002460B46D4E9140113F0D6FE0646E06899
:101180000F4613F04FFD02460B463046394613F02A
:10119000CBFE14F097F8D0BDA0F14800FFF7E3BFF5
:1011A000034607C983E807007047704710B44268D8
:1011B00081685410034601EB6200D20748BF0A5908
:1011C0001B685DF8044B48BFD3581847D0ED037A2D
:1011D0009FED057A67EE877A1430FDEEE77A17EE19
:1011E000901A03F08BBB00BF00007A4430B5044670
:1011F0001248238289B00123C4E900020C22CDE900
:1012000000230F4BE160002204F1140502940393C4
:1012100022621BB1694604A8FFF7C2FF039B079334
:10122000012204A9284603F077FB04A8FFF74BF836
:101230006846FFF748F8204609B030BD74690108D8
:101240006069010810B50446FFF7D0FF044B03F1B5
:1012500008022833A364029B2260A365204610BDC8
:101260008469010803624FF4206383844FF07C5348
:1012700083624FF03F4310B5C362064B0363064BD6
:101280004363064B8363029BC363039B0364C0E910
:10129000001210BD000020410000F0410000964304
:1012A000C0E902237047D0E9040170474068036831
:1012B0005B6818472DE9F843056A044616461F4641
:1012C00065B11046194613F0FDFF2B6801461B68F7
:1012D0002846984713F0A6FC06460F46E06A13F02E
:1012E000A1FC32463B468046894613F083FF40B15D
:1012F00094F82430013384F8243040464946BDE850
:10130000F883A06A13F08EFC32463B46804689463D
:1013100013F052FF0028EBD1002384F82430B046AC
:10132000B946EAE72DE9F043044600682DED028B4B
:10133000036883B05B68984708EE100A206803686A
:101340009B689847D4ED0E7AF0EEC88AF4EEE87AFE
:10135000F1EE10FA05460CD500220023C4E9022361
:10136000C4E904234FF0FF3003B0BDEC028BBDE8AD
:10137000F083D4E90289206B29F0004713F052FC76
:1013800042463B46464613F035FF70B1D4ED0D7A28
:10139000F4EEE87AF1EE10FA07DD00220023C4E94A
:1013A0000423C4E906230120DEE7002D3BD03046AC
:1013B000394613F087FF07EE900A666877EEC87A21
:1013C000336817EE900A1F6813F02CFC804689469C
:1013D000CDE9008969463046B84713F073FF13F032
:1013E00021FC02460B462046FFF764FF13F06AFF1C
:1013F00094F8242094F825309A4217D9B5EE408A03
:10140000F1EE10FA12D1606803685B689847002318
:101410000022C4E90223C4E90423002384F8243011
:101420006FF00100A0E740464946C2E713F0FAFB1F
:1014300006460F46C4E90467C4E90689D4E90201F7
:101440000022002313F0B8FE0028ACD0002DAAD053
:1014500007F1004326616361A5E770B514461D4698
:101460000646C06B13F0DEFB22462B4613F0AEFEA1
:1014700048B1306C13F0D6FB22462B4613F0B0FE79
:10148000003818BF012070BD034607C983E8070074
:101490007047704710B4426881685410034601EBEE
:1014A0006200D20748BF0A591B685DF8044B48BF69
:1014B000D358184770B590F82430012B044602D059
:1014C000022B4FD070BDC068A16903681B689847A4
:1014D0002069E169036881F000411B68984794F82E
:1014E0002530002B39D0256D002D36D094ED057AAE
:1014F000DFED277A67EE277A17EE900A13F092FB5A
:1015000002460B462846FFF7CBFE206DFFF70AFF89
:10151000431C0FD160681F49BC3004F01FFFA06856
:1015200003685B689847206DFFF7C0FE022384F8CC
:101530002430C7E7023002D160681749ECE7A5689C
:10154000206D2B681E68FFF7AEFE13F0BBFE33461E
:1015500001462846BDE870401847A06861690368E5
:101560001B68F7E7C068A16903681B689847206992
:10157000E16903681B689847A06803685B6898473F
:10158000206D00289ED0BDE87040FFF78FBE00BFE1
:1015900000001643B4690108E5690108F0B50E467C
:1015A00089B0294904AB04461546304603AA09F020
:1015B000CBFF07AB074600933046244906AB05AA8C
:1015C00009F0C2FF022F06463BD194F825308BB1BB
:1015D0009DED037ADFED1E7A67EE277A17EE900A0B
:1015E00013F020FB02460B46206DFFF736FF88B94B
:1015F000184906E0A06803990368DB68984728B992
:101600001549284609F07EFF09B0F0BD94F8253051
:10161000002BDDD1E068049903685B68984708B93E
:101620000E49EEE7032E08BF079B0D4918BF0023A4
:10163000E361039B6361049BA361012384F824306D
:10164000DFE70849DDE700BF006A0108FD6901081E
:1016500000001643266A0108066A0108486A010864
:101660002B6801083168010837B50446154608465D
:1016700001AA114909F068FF01281BD1E06801990E
:1016800003685B68984728B90C49284609F03AFF77
:1016900003B030BD0023206D019A6361E361022332
:1016A000A26184F8243018B100220023FFF7F8FD6E
:1016B0000349EAE70349E8E7036A0108486A0108C1
:1016C0002B6801083168010837B500230446154628
:1016D000084601AA0E49019309F036FF012815D1E9
:1016E000236D2BB90B49284609F00CFF03B030BD20
:1016F00000236361019B0849002BD4BF0023012311
:1017000084F82530022384F82430ECE70349EAE723
:10171000246B0108716A01082B680108316801080F
:10172000D0ED087A9FED057A67EE877A5430FDEEAA
:10173000E77A17EE901A03F0E1B800BF00007A4490
:1017400070B5044688B0A3600C9BE36017480D9BFE
:10175000236100250023C4E900026361A361E36102
:10176000216284F8255004F1280004F0AFFF104BEB
:10177000A3620E9B236501260E4BE5646946256630
:1017800004A80393CDE901640095FEF7DBFD324622
:1017900004A904F1540003F0BFF804A8FEF793FD78
:1017A0006846FEF790FD204608B070BDCC6A01087F
:1017B00018760108B86A0108034607C983E80700DC
:1017C00070477047034607C983E8070070477047B2
:1017D000034607C983E807007047704770B4446840
:1017E00085686610034605EB6400E40748BFAC5902
:1017F0001B6848BFE35870BC184770B444688568DC
:101800006610034605EB6400E40748BFAC591B684B
:1018100048BFE35870BC184770B4446885686610C8
:10182000034605EB6400E40748BFAC591B6848BF9A
:10183000E35870BC18470000D0ED056ADFED107A60
:10184000C0ED066A91ED007A90ED026A80ED057AAE
:10185000F0EE675AE7EE065A90ED036AB0EE657A4D
:10186000A6EE267AD0ED046A90ED016AE6EE267ABD
:1018700077EE677AC0ED047A17EE900A704700BFE2
:101880000000000010B5054B8364054B044640F88A
:10189000143B03F036F8204610BD00BFAC690108C8
:1018A0007469010807EE901A90ED017AF4EEC77A98
:1018B000F1EE10FA73B500F10C030BD900F114032B
:1018C00006DD90ED027AF4EEC77AF1EE10FA01D956
:1018D00000F11C0317EE900A1C685E6813F0A2F971
:1018E0000E4B002206F0DCFB02460B462046CDE9FB
:1018F000002313F097F9DDE9002313F0EBF9044618
:1019000030460D4613F08EF902460B462046294616
:1019100013F02AF813F0D6FC02B070BD0000F03FBF
:1019200038B505460024AB68A34207D96B6853F865
:10193000240003689B6898470134F4E738BD000031
:1019400070B5164C164D174E20464FF47A31BC3404
:1019500004F05AFD1449204604F000FD29462046B3
:1019600004F0FCFC3146204604F0F8FC0F49204608
:1019700004F0F4FC3146204604F0F0FC29462046F1
:1019800004F0ECFC0A49204604F0E8FC0948FFF7A3
:101990001DFC0948FFF7C4FE002070BDE80D0020C3
:1019A000D56A0108E96A0108D06A0108FD6A0108E0
:1019B000D26A0108000D0020600D002010B5FFF76D
:1019C000BFFF044620B9064C2046FFF7A9FFFBE7FE
:1019D00002460449044804F0C1FC204610BD00BF83
:1019E00090120020116B0108A40E0020C36810B5EE
:1019F00004460BB19B689847204610BD10B5074BB5
:101A0000044640F8543B02F07CFF2046044B40F86B
:101A1000283FFEF761FC204610BD00BFCC6A0108DC
:101A20001876010810B50A4B044640F8A83BFEF7AB
:101A30004AFC04F19800FEF746FC04F13800FFF779
:101A4000D5FF04F12800FFF7D1FF204610BD00BFED
:101A5000E875010810B50446FFF7E4FF2046BC21F5
:101A600005F082F8204610BD10B5094B036003F164
:101A700020025C330446C0F8BC20C0F8C030BC3043
:101A800004F034FC2046FFF7CDFF204610BD00BF18
:101A9000D0740108A0F1BC00E6E7A0F1C000E3E7C4
:101AA000C36810B504460BB19B689847204610BD2B
:101AB000F0B50D4F002400250026C0E90245C0E91D
:101AC0000445C0E90045C0E90845C0E90645C0E94C
:101AD0000A67C0E90C45C0E90E45C0E91045C0E9F8
:101AE0001245C0E91445F0BD0000F03F30B50024B8
:101AF0000025C0E90045C0E90245C0E90445D1E937
:101B00000045C0E90045D1E90245C0E90245D1E9F7
:101B10000445C0E9044530BD00F10803F7B50446AB
:101B2000164603600D4609B3084609F009FF0F2861
:101B300005EB0007019007D9002201A9204605F016
:101B40002DF9019B2060A36020683A46294605F0E4
:101B500051F92046019B50F8182B63600021D154A5
:101B60003146FEF7ECFD204603B0F0BD014805F01C
:101B7000E5F800BF276B010838B50546382001F0AD
:101B8000D7F929460446103005F08AF905F1180105
:101B900004F12800FEF7D3FD204638BD10B581685A
:101BA0000446FEF795FD204610BD08B505F030F956
:101BB000C00F08BD2DE9F0418D6804460F469046E0
:101BC0000E1D01205DB105F110014046FFF7EDFF4C
:101BD00018B1AB682E461D46F4E7EB68FAE7A0B1F2
:101BE000FB68B34204D1256066602046BDE8F08101
:101BF000304604F0D5FF0546414605F11000FFF7D9
:101C0000D4FF20B100232360EEE73546F4E7C4E9B2
:101C10000050EAE72DE9F04385B06B4600F1040877
:101C200083E806000023C0E90238C0E904834FF0CE
:101C3000280904460D46037109FB0219A9452CD059
:101C4000636933B12669294606F11000FFF7ADFF3D
:101C500000BB2A46214602A8FFF7ACFFDDE90236A9
:101C6000A6B1ABB9B04513D006F110012846FFF775
:101C70009CFF07462846FFF77FFF43460146324652
:101C8000384604F08FFF6369013363612835D5E777
:101C90000127EFE7002EE5D1F8E7204605B0BDE8C3
:101CA000F0830000000000002DE9F04F2DED048BC3
:101CB000DBB04FF416530093032200230221C048E7
:101CC000DFF87093BF4EDFF87083DFF870B304F075
:101CD00095FA0025BC4ABD49B94801F015F915230C
:101CE00000950A221321BA48FFF712F9B64AB949FA
:101CF000B74801F009F927214846FEF7E1FFB24A4B
:101D0000B549484601F000F90921B448FEF7D8FF6B
:101D100028ACAD4AB049B14801F0F6F81422294682
:101D2000204608F07BFF0521204604F028FD2AAB61
:101D300093E807008DE8070041F2883194E80C0031
:101D4000A748FEF711FEA04AA649A54801F0DCF815
:101D5000A54B3360A54B7360A54BB360F3600023C4
:101D600033617361B361A34B19680591FFF788F97B
:101D70004FF400630246059900969F48FFF762FA08
:101D8000914A9E499C4801F0BFF88D4B9A4A6421C4
:101D90004046FEF73BFE8C4A9949404601F0B4F8B4
:101DA000874A98486421FEF7B3FE874A96499548CA
:101DB00001F0AAF8DFED957ADFF884C2DFF884E25B
:101DC000CDED237ACDF898C0CDF89CE02595CDF8DF
:101DD00088C0CDF890B022AF0FCF26460FC697E847
:101DE00003008B4F8B4B3B608B4B7B6086E8030083
:101DF0008A4BCDED297ACDF8A0C0CDF8A8B0CDF8AA
:101E0000B0C0CDF8B4E0A646BB60BEE80F0007F155
:101E10000C0CACE80F0096E80300764B804E8CE883
:101E20000300186812F0FEFE824630467D4B40F8F3
:101E3000083B8B46FFF73CFE51A3D3E900235946EC
:101E4000504612F047FF50A3D3E9002312F042FF9F
:101E50004FA3D3E9002341EC180B5946504612F02A
:101E600039FF4DA3D3E9002341EC190BCDE916232B
:101E700002460B4651EC180B12F076FD48A3D3E94D
:101E8000002312F06FFD48A3D3E9002312F06AFD8E
:101E90003BA3D3E9002313F047F85B46CDE91801D3
:101EA00052465946504612F015FF37A3D3E9002396
:101EB00012F010FF3EA3D3E9002312F055FD53ECBE
:101EC000182B12F04FFD53EC192B12F04BFD2CA3E5
:101ED000D3E9002313F028F8534B0022CDE91C234B
:101EE000CDE91A015B46524633A1D1E9000112F057
:101EF00039FD23A3D3E9002301F1004113F014F8C5
:101F00005B46CDE91E0152461DA1D1E9000112F048
:101F100029FD1BA3D3E9002313F006F816AACDE987
:101F2000200111462046FFF7E1FDDDE92823C6E93F
:101F30000223DDE92A23C6E90423DDE92C23C6E9CF
:101F400006231CAA11462046FFF7D0FDDDE92A230F
:101F5000C6E90823DDE92C23C6E90A23DDE92823A5
:101F6000DFF8E4B02449C6E90C23304B0193304B31
:101F7000009332463B465846FFF774F966E000BFCF
:101F80007B14AE47E17AA43FEC51B81E85EBE93FE4
:101F9000713D0AD7A370BD3F946588635DDCBE3F89
:101FA0004850FC1873D7823F0188BB7A15193D3F12
:101FB000882CD2C43BC0733F7B14AE47E17AB43F58
:101FC000E80D0020700C002098010020691A00081C
:101FD000A40C00208D0E0008D90C0008000C002075
:101FE000DC0B002041090008746B0108721C47BF1C
:101FF000398EE33D9C010020000D0020851800086B
:10200000B9090008C00E00206D0A0008405AB7BD8B
:1020100030130020806B0108D7FA62BED7FA623E07
:10202000C81200208C6B01080000F03F00006143E3
:10203000000061C36C1200208C0C0020910F023F45
:102040002A50D53D405AB73D280C0020574A584EDB
:102050005849CDF808B0CDE90092574B574A096866
:10206000574F3046FFF76CFB564A5749304600F051
:102070004BFF564B56491E961CAA2046CDE91C35EF
:102080001F97FFF749FD534B534916AA32A8CDE9D4
:102090001635CDE91867FFF73FFD504B504912AA9E
:1020A0003CA8CDE91235CDE91467FFF735FD4D4B5E
:1020B0004D49CDF84080CDE90E350EAA4B4B11931A
:1020C00046A8FFF729FD4A4B4A49CDE90A354A4B54
:1020D0000C930AAA494B0D9350A8FFF71DFD052349
:1020E000099306AB0093089408AA06CA444807ABB4
:1020F000FFF790FD5AAD283D05F11800FFF7D0FC21
:10210000284604F06FFEA542F5D10AA8FFF7C8FCE7
:102110000EA8FFF7C5FC12A8FFF7C2FC384D16A8A1
:10212000FFF7BEFC1CA8FFF7BBFC264A3549284632
:1021300000F0EAFEA968002329AACDE92B228DF838
:10214000A4302A932D9399B11CAB20461C94FEF722
:1021500001FB03461A469B68002BFBD12B920346DA
:102160001A46DB68002BFBD16B692C922D932A90C9
:10217000224612492448FEF73BFB2A992046FEF7E7
:10218000A7FA104A2149204800F0BEFE204B214901
:1021900021480422FEF7E2F80A4A20491E4800F0CE
:1021A000B3FE5BB0BDEC048BBDE8F08F000C0020EB
:1021B000600D00209C010020A80C0020E80D0020EC
:1021C000AC6B010898010020FD1900089D1500085E
:1021D000516B010869160008566B0108C916000802
:1021E0005B6B01082D0A0008606B0108A06B0108F9
:1021F000950A0008656B0108C00E0020946B010869
:10220000C40B00209D1B00081C0F002005070008C0
:1022100017B7D138A0010020901200201103000848
:1022200010B50446FFF720FC2046D82104F09CFCA2
:10223000204610BDA0F1BC00F2E7A0F1C000EFE71E
:10224000D0E90E232DE9F047C0E91023D0E90C2393
:10225000C0E90E23D1E90023C0E90C2382460646DB
:1022600000F11807002400253146D1E90023D1E907
:102270000C0112F02FFD02460B462046294612F0B3
:1022800073FB0836B74204460D46EDD1DAE9082360
:10229000DAE9140112F01EFDDAE91289DAE90623FF
:1022A00006460F464046494612F014FD0022002320
:1022B00012F05AFB02460B463046394612F054FBE8
:1022C00002460B462046294612F04CFBDAE90A2367
:1022D00012F02AFE02460B46CAE91489CAE9122303
:1022E000BDE8F08708B50830FFF7AAFF08BD002257
:1022F0000023C0E90C23C0E90E23C0E91023C0E984
:102300001223C0E91423704708B50830FFF7EFFF28
:1023100008BDFFF7C9BC00001FB50446102268467F
:10232000002108F07BFC284B22681A60A279012367
:1023300001930293122A43D8DFE802F02C2B0A0CF7
:102340000E10121416181A1C1E20222426282A00E9
:1023500002231EE003231CE004231AE0052318E0F7
:10236000062316E0072314E0082312E0092310E0F7
:102370000A230EE00B230CE00C230AE00D2308E0F7
:102380000E2306E00F2304E0102302E0112300E0F7
:10239000122300930D4A0C48536823F44003694606
:1023A000536001F0DBF9084801F024F906480A21DE
:1023B00001F080F920B9044801F0CCF980B200E0C6
:1023C000002004B010BD00BFCC1700200023014046
:1023D00073B505460C460846264904F00FFA2860F6
:1023E000013004D124482549362204F0ADFA2046B4
:1023F000204904F01FFA431C064604D120481F4917
:102400003A2204F0A1FAC6F3C426EF2CAE7103DC25
:102410002046184904F0B6F929681A4BAC80994255
:102420000FD11948036813BB0193184B5A6C42F43F
:1024300080725A645B6C03F480730193019B0123E7
:10244000036013480023012201604360836003613D
:10245000836103624362C3628362C360C2610363D8
:10246000436101F01DF810B10A4804F0CFFA02B040
:1024700070BD00BFB06D0108A06E0108B86E010804
:10248000136F01080020014054130020003802405F
:10249000CC1700202C6F010808B5FFF73DFF07EEB1
:1024A000900AB8EE677ADFED037A67EE277A17EEC7
:1024B000900A08BD0108803910B50C4CA268A468C8
:1024C000B4F1006F13460CD1131F094A53F8044F9F
:1024D00042F8044F074CA242F8D1044A4FF000538F
:1024E0009360103043F8201010BD00BF00ED00E0F5
:1024F000FCFFFF1F90010020431C10B5044604D1CF
:1025000006480749262204F01FFA2046002100F061
:10251000B1F904F00F040120A04010BDEF670108DD
:10252000436F010870B504464B1C0E4621800ED047
:10253000C1F3031000F02EF905463046FFF7DCFF2B
:1025400005F1100318356060A360E560256170BD7A
:10255000B0F9000000F0BCB938B5B0F90030013373
:1025600005460C4604D107480749492204F0ECF916
:10257000012CB5F900000CBF21460021BDE8384010
:1025800000F078B9EA670108436F010838B5144BC9
:102590001A68116911F0020F1C4607D0D36898071A
:1025A00004D56FF00203136104F058F923681A6927
:1025B000510714D5DA68520711D56FF00402094D9E
:1025C0001A615C6A2B68E31AB3F57A7F07D300F0CF
:1025D00057FF034B1B6804F57A729A632C6038BD71
:1025E000641800205813002030B589B003A801A951
:1025F00001F0B2FC01F080FC00230293234B019018
:102600001A6C234C42F008021A641A6C02F0080299
:102610000292029A1A6A42F008021A621A6A22F0B8
:1026200008021A62069AA3F50B3323604FF0FF33BA
:10263000E360184B02B14000B0FBF3F00138002515
:10264000606013482561A560656101F083FD32205B
:102650001149FFF731FF114B0D484FF480225A60AA
:10266000294601F047FE0421094801F043FE236892
:102670000B4A596A1160126802F57A729A63DA6835
:10268000284642F00402DA6009B030BD003802404A
:102690006418002040420F008D25000800E100E092
:1026A000581300207FB504F069F901A8052104F052
:1026B00066F8BDF90430013304D10E480E493A22C0
:1026C00004F042F9049B029A1A60962004F0B4F9CF
:1026D000BDF90430013304D1064807493A2204F019
:1026E00033F9029B059A1B041360962004F0A4F9A9
:1026F000DFE700BFEA6701088B6F010830B50546C8
:10270000A1B00C4604F03AF92946684622460EF07C
:10271000E7F9051E03DC04F05BF921B030BD094B7D
:102720001B6823B908480221032200F037FD00246A
:102730001DF804100448013400F05CFEAC42F7D1EF
:10274000E9E700BFA8160020141800200FB407B551
:1027500004A951F8040B0191FFF7D0FF03B05DF815
:1027600004EB04B0704708B501F05AFFBDE808401B
:1027700000F06EBE13B5019002F078F8044602F046
:1027800075F8019A4FF47A73001B53439842F6D3BD
:1027900002B010BD7FB50023072853D8DFE800F052
:1027A00004111E2B3852524500932A4B2A481A6BAB
:1027B00042F001021A631B6B03F001030093009BBC
:1027C00044E00193234B25481A6B42F002021A633E
:1027D0001B6B03F002030193019B37E002931D4B37
:1027E0001F481A6B42F004021A631B6B03F00403C8
:1027F0000293029B2AE00393164B1A481A6B42F08D
:1028000008021A631B6B03F008030393039B1DE08C
:102810000493104B14481A6B42F010021A631B6B9E
:1028200003F010030493049B10E00593094B0F4839
:102830001A6B42F080021A631B6B03F0800305934E
:10284000059B03E00A4804F0E1F8002007B05DF8BA
:1028500004FB00BF003802400000024000040240B8
:1028600000080240000C024000100240001C024020
:10287000EE6F010830B5431C87B005460C4604D105
:1028800010481149812204F05FF8C5F30310FFF7E7
:1028900081FF05F00F050123AB4004F00F02019307
:1028A0000A4B53F822300293C4F302130393C4F388
:1028B000C314032301A90493059400F0E1FF07B0BA
:1028C00030BD00BFEF6701080F7001086470010898
:1028D000431C70B506460C4604D10D480D49A6228E
:1028E00004F032F8C6F30310FFF754FF06F00F05AB
:1028F000C1686B0003229A4021EA0202032CC260E5
:10290000C26828BF00249C401443C46070BD00BF4F
:10291000EF6701080F70010830B507EE101A284B59
:1029200002681A60B5EEC07AF1EE10FA89B0054679
:1029300009D4F7EE007AB4EE677AF1EE10FAC8BF68
:10294000B0EE677A01E09FED1F7AD5ED037AF8EEDD
:10295000677A602267EE877A0192FCEEE77AAA68CE
:10296000C5ED047A17EE903AB3FBF2F3029300231D
:10297000039304930593069307932B7D013B032B4D
:102980001CD8DFE803F008020406042404E008244D
:1029900002E00C2400E00024094801A9224601F0CD
:1029A00039FC10B1084804F031F86B7D0448214629
:1029B00013B101F0D7FC01E001F0B2FC09B030BD69
:1029C0005C1300200000000098700108C368ABB1E0
:1029D00090ED047A07EE903AB8EE477AF8EE677A0F
:1029E000C7EE277AB7EE007AF4EEC77AF1EE10FA66
:1029F000D4BF17EE900A17EE100A704700207047F8
:102A00002DE9F041D0F80080414C86B005460E46D5
:102A1000C4F80080FFF7DAFFD8F8202041F2111344
:102A2000134007465BB9D8F8202040F244431340D6
:102A30002BB9D8F8003023F00103C8F8003001A802
:102A4000694601F089FA2B68324A93421BD00BD8B1
:102A5000A2F50062934216D002F58062934212D032
:102A6000B3F1804F51D10EE02B4A934210D002D8DF
:102A7000A2F5804204E0294A934209D002F580621F
:102A8000934205D041E001F037FA0090049803E04A
:102A900001F04AFA00900598009A2149B6F5803F66
:102AA000ACBF4FF4FA730123AB60AB6800B15200C6
:102AB000B2FBF1F212FB03F39BB2013B636063686C
:102AC000B3F5803F02D3174803F0A0FFAA68731E36
:102AD000B3FBF2F3B3F5803FE36002D3124803F097
:102AE00095FF00230A482361A36001F04DFB10B15C
:102AF0000E4803F08BFFEE6028463946FFF70CFFC7
:102B00002268136843F00103136006B0BDE8F0814A
:102B10005C130020000C00400040014000440140D4
:102B200040420F00AF700108CB7001089870010897
:102B300070B5044688B008460E46554903F05EFE5F
:102B40002060013004D1534853492D2203F0FCFE8C
:102B500030464F4903F06EFE431C054604D14F48F2
:102B60004D49312203F0F0FEC5F3C4234C4A2375CE
:102B70002368C5F30045934265754FF000020BD101
:102B80000092484A516C41F001015164526C02F0CC
:102B900001020092009A3BE0B3F1804F0BD1019209
:102BA000404A116C41F001011164126C02F0010203
:102BB0000192019A2CE03C498B420BD10292394A96
:102BC000116C41F002011164126C02F002020292D7
:102BD000029A2DE035498B420BD10392314A116C98
:102BE00041F004011164126C02F004020392039A92
:102BF0002EE02F498B420BD12A4B04921A6C42F0E3
:102C000008021A641B6C03F008030493049B2EE073
:102C1000284A93420CD100230593224B5A6C42F46C
:102C200080325A645B6C03F480330593059B1EE08D
:102C3000214A93420CD1002306931A4B5A6C42F45A
:102C400000325A645B6C03F400330693069B0EE07B
:102C50001A4A93420BD100230793124B5A6C42F449
:102C600080225A645B6C03F480230793079B084916
:102C7000304603F087FD0023E36023610123A68033
:102C8000A360204644F62061FFF7BAFE08B070BD8D
:102C9000006C0108E4700108FC700108136F010862
:102CA00000000140003802400004004000080040DD
:102CB000000C004000400140004401400048014039
:102CC0004FF47A735943FFF79BBE70477047036810
:102CD00070B504465B6A9847236820461B6900214B
:102CE00001229847431C0646236804D120469B6A6C
:102CF0009847304670BD1B69204600210222984744
:102D000023680546314600221B6920469847236800
:102D100020469B6A9847284670BD000008B5084BBE
:102D20001B685BB907480221032200F037FA054807
:102D30004FF41651BDE8084000F0DABA08BD00BFF4
:102D4000A81600201418002002284FF0000309DD07
:102D5000C21E074951F8220041F8223020B1036811
:102D60005B681847184670474FF0FF30704700BF48
:102D7000A4130020022870B50C4615460FDC0E4B3C
:102D80001B680BB9FFF7CAFF6619B44205D00B48A0
:102D900014F8011B00F02EFBF7E7284670BD03383E
:102DA000074B53F8200020B10368BDE870401B6852
:102DB00018474FF0FF3070BDA816002014180020EF
:102DC000A4130020022810B50C460ADC0B4B1B682C
:102DD0000BB9FFF7A3FF0A4800F0F0FA20700120BA
:102DE00010BD0338074B53F8200020B10368BDE83D
:102DF00010409B6818474FF0FF3010BDA816002008
:102E000014180020A4130020022807DD0338064B05
:102E100053F8200020B10368DB6818470120704791
:102E20004FF0FF30704700BFA4130020022807DDD9
:102E30000338064B53F8200020B103681B6918477C
:102E4000002070474FF0FF30704700BFA4130020F0
:102E5000022808B504D84FF400534B60002008BD89
:102E600006F04CFA092303604FF0FF3008BD000064
:102E7000014803F0CBBD00BF6471010808B5012013
:102E800000F044F808B5FFF76EFC01F025FE08BD20
:102E9000704708B5FFF7FCFFBDE80840FEF78EBDA0
:102EA0000C4A136810B51844EFF30881884205D323
:102EB000094B0C221A604FF0FF3010BD074909681A
:102EC00021B1074C246821448842F1D21060184691
:102ED00010BD00BFB001002024230020A01300205B
:102EE000A4140020074C08B523680546986806F02E
:102EF0003FFB2368D86806F03BFB0DB1FFF7D2FB20
:102F0000FEE700BFDC0100200120704708B5FFF795
:102F1000E9FF01207047002108F0D0B906F03ABB64
:102F200008B501F0E7FD08BD08B501F0EBFD08BDEF
:102F300010B507F021FA044610B9024803F066FD07
:102F4000204610BD1372010808B107F01DBA704782
:102F50000B4B10B5036004460A48FDF799FF0023A8
:102F6000094A52F82310A14204BF002142F823105D
:102F70000133402BF4D10348FDF78AFF204610BDF2
:102F8000B072010898130020A41300202DE9F3412A
:102F900088463649054608F057FB044610B9FFF746
:102FA000BDFE5EE02846324908F04EFB18B9FFF737
:102FB000B5FE012455E028462E4908F045FB18B916
:102FC000FFF7ACFE02244CE02B48FDF761FF002424
:102FD0002A4E56F82430374633B10134402CF7D10D
:102FE0002548FDF755FF3AE04FF0FF33224846F8F9
:102FF0002430FDF74DFF2B783A2B06D12846204987
:103000006A4608F0A1FA009824E06846294603F0D1
:1030100097F8684603F0D6F810B946F824001EE089
:10302000684603F0BDF818B1684603F0C2F811E035
:10303000684603F0AEF8054610B946F824000EE0E5
:10304000036868469E6803F099F828F480320146C8
:103050002846B04747F8240008B1033401E04FF098
:10306000FF34204602B0BDE8F08100BF5571010871
:10307000A07201085C71010898130020A4130020BD
:103080009C7201084309203300F01F00044901220B
:10309000824041F82320BFF34F8FBFF36F8F7047FB
:1030A00000E100E0426818490346920110B5881813
:1030B0001C688C509A6842600246D96842F8081F22
:1030C000196951605969916000F110011A6A8A60AA
:1030D0000022C261C2848284C2858285B3F91A202B
:1030E000013201D1082305E0B3F9183001330CBFD8
:1030F00004230C234B6001F064FA20B10348BDE8BF
:10310000104003F083BC10BDA8140020DC7201083D
:103110001A4BF7B5074653F820001E4600282BD05F
:10312000174CBD0163591A6852060AD5DB68590667
:1031300007D5144B01211B68984763596FF0400273
:103140001A6063591A6892060DD5DB6898060AD58D
:103150000C4B56F827001B6800219847084B5B5919
:103160006FF020021A6063591A68110704D55A6972
:10317000D20744BF5B68019303B0F0BDAC160020DA
:10318000A8140020CC1600200020FFF7C1BF0120AA
:10319000FFF7BEBF0520FFF7BBBF0000F0B5044638
:1031A00085B008460E464949154603F027FB4849B5
:1031B0000746284603F022FB0146384603F000FB91
:1031C0002060013004D143484349662203F0BCFB30
:1031D0002368424A93421DD002F5806293422FD069
:1031E000A2F55042934241D13D4B1A6A42F400325B
:1031F0001A621A6A22F400321A62002202921A6CCF
:1032000042F400321A641B6C03F400330293029BF5
:1032100001232AE0324B5A6A42F010025A625A6A7B
:10322000002122F010025A6201915A6C42F0100201
:103230005A645B6C616003F010030193019B15E01D
:10324000274B5A6A42F020025A625A6A22F0200240
:103250005A62002203925A6C42F020025A645B6C5C
:1032600003F020030393039B052363603046174953
:1032700003F088FA2846164903F084FA721C03D03A
:1032800030460121FFF724FB6B1C03D028460121A7
:10329000FFF71EFB4FF41653A3600023E360236186
:1032A00063612362268365832046FFF7FBFE226865
:1032B0000C4B9A4207D10C4B0C4801221A60214654
:1032C0004C2207F0A5FB05B0F0BD00BF686D0108FA
:1032D000B86B0108F4720108107301080010014076
:1032E0000038024000440040A816002014180020B6
:1032F0008160FFF7D7BE0000034B19604168034BA4
:1033000043F82120704700BFCC160020AC160020E7
:1033100038B54368012B0D4605D0052B06D043B9BF
:103320001C49252407E01C49262404E01B494724A6
:1033300001E000210C461A489B01AAB1C258D3688B
:1033400015B943F0200301E043F0400365B2D360B8
:103350002846FFF7B1F86D0904F007040123114A6C
:10336000A34042F8253038BDC358DA6835B922F099
:103370002002DA60DB681A0606D538BD22F040026A
:10338000DA60DB689B0604D42046BDE83840FFF7CE
:1033900079BE38BD893100088F31000895310008A9
:1033A000A814002000E100E04368034A9B01D358C1
:1033B0001868C0F340107047A814002038B544685E
:1033C00005462846FFF7F0FF0028FAD0A401034B7A
:1033D0001B595868C0F3080038BD00BFA81400206E
:1033E0004368034A9B01D3581868C0F3C010704764
:1033F000A814002070B5456806460C463046FFF715
:10340000EFFF0028FAD0AD01024B5B59C4F308046A
:103410005C6070BDA8140020DFF820D0002103E01C
:10342000074B5B58435004310648074B42189A42F9
:10343000F6D301F0CFF9FCF7CDFE704700800120F4
:10344000D4810108980100209C0B0020FEE70000B9
:1034500008B50A4B1A6842F400721A601A6842F4FE
:1034600080621A601A6842F480721A600F20FFF7B7
:10347000BBF800F003FA002008BD00BF003C02408A
:10348000024A136801331360704700BF60180020C0
:10349000014B1868704700BF60180020704700009B
:1034A00010B50446002800F09E80036C23B94364E5
:1034B00080F83C30FFF7F2FF236CDB0600F18E80D2
:1034C000236C23F4885323F0020343F002032364A4
:1034D000464B5A6822F440325A60596862680A437F
:1034E0005A60236821695A6822F480725A605A68C7
:1034F00042EA01225A605A6822F040725A605968C2
:10350000A2680A435A609A6822F400629A60996835
:10351000E2680A439A603649A26A8A420ED09968E4
:1035200021F07061996099680A439A609A6822F064
:1035300040529A609968E26A0A4306E09A6822F06B
:1035400070629A609A6822F040529A609A68A16903
:1035500022F002029A609A6842EA41029A60226A64
:103560009AB15A6842F400625A605A6822F4604282
:103570005A604FF4604191FAA1F1626A5868B1FA59
:1035800081F1013A8A40024302E05A6822F4006263
:103590005A60DA6A22F47002DA62E269D96A013AA0
:1035A00041EA0252DA629A68216B22F400729A6050
:1035B0009A6842EA41229A609A68616922F48062BC
:1035C0009A609A68002042EA81229A606064236CC3
:1035D00023F0030343F00103236400E001200023F0
:1035E00084F83C3010BD012010BD00BF0023014015
:1035F0000100000F82B00023019390F83C30012BB2
:103600004DD0012380F83C3003689A68D10703D578
:103610009A68D20712D437E09A68224942F0010230
:103620009A60214A1268B2FBF1F202EB4202019267
:10363000019A002AECD0019A013AF8E7026C22F4D0
:10364000E06222F0010242F4807202645A6851057D
:1036500041BF026C22F4405242F480520264026C78
:1036600012F480521CBF426C22F006024264002217
:1036700080F83C206FF022021A600C4A5268D20691
:1036800004D00B4A934201D0002009E0986810F062
:103690004050F9D19A6842F080429A6000E00220DE
:1036A00002B0704740420F00B401002000230140E7
:1036B0000020014003689A6870B5560504460D461F
:1036C0000BD59B68D80508D5236C43F020032364F1
:1036D000002384F83C30012070BDFFF7D9FE064678
:1036E00023681A68920711D4691CFAD045B9236C73
:1036F00043F004032364002384F83C30032070BDAE
:10370000FFF7C6FE801BA842EAD9F0E76FF012026D
:103710001A60226C42F4007222649A6812F0405FD0
:1037200001D0002070BDA269002AFAD1DA6A12F431
:10373000700F02D09B685B05F3D4236C23F4807375
:103740002364206C10F48050EBD1236C43F0010310
:10375000236470BD0368D86C70470000F7B5002380
:10376000019390F83C30012B63D00D688A680123E7
:10377000092D80F83C30ACB203680FD904EB440645
:10378000DF681E3E4FF0070E0EFA06FE27EA0E0710
:10379000DF60DF68B2403A43DA600DE01F6905EB95
:1037A000450E072606FA0EF627EA06061E611E6972
:1037B00002FA0EF232431A614A68062A4FEA82017F
:1037C0000CD80A445E6B053A1F21914026EA01019C
:1037D0005963596B94400C435C631AE00C2A0CD873
:1037E0000A441E6B233A1F21914026EA0101196306
:1037F000196B94400C431C630BE00A44DE6A413AA7
:103800001F21914026EA0101D962D96A94400C43F4
:10381000DC62164A934204D0002380F83C301846FC
:1038200022E0122D07D1124A536843F480035360FB
:1038300001E0022018E0A5F11003012BECD80C4A9E
:103840005368102D43F400035360E5D1094B0A4A35
:103850001B68B3FBF2F20A2353430193019B002B35
:10386000DAD0019B013BF8E703B0F0BD0020014036
:1038700000230140B401002040420F0070470000C7
:103880002DE9F3410F6800220123934003EA070565
:103890009D4240F0B9804C6824F0100CBCF1020F3E
:1038A00014D14FEAD20E00EB8E0E02F00706DEF8BE
:1038B0002030B6004FF00F0808FA06F823EA08088F
:1038C0000B69B34048EA0303CEF820304FEA420EBA
:1038D0000323066803FA0EF3DB4303EA060804F049
:1038E000030606FA0EF60CF1FF3C48EA0606BCF1A8
:1038F000010F066011D8866803EA060CCE6806FA46
:103900000EF64CEA06068660466826EA050CC4F305
:10391000001696404CEA06064660C66803EA060CA6
:103920008B6803FA0EF64CEA0603C360E3006BD51E
:10393000394E00230193D6F844E04EF4804EC6F889
:1039400044E0766C06F480460196019E22F0030660
:1039500006F1804606F59C3602F0030CD6F8088086
:103960004FEA8C0C4FF00F0E0EFA0CFE28EA0E0EEA
:10397000DFF8AC80404519D003F1804303F50133F3
:1039800098420ED003F5806398420CD003F5806313
:1039900098420AD003F5806398420CBF04230523A4
:1039A00004E0012302E0022300E0032303FA0CF306
:1039B00043EA0E03DFF864E0B360DEF80030EE4364
:1039C00014F4803F14BF2B433340CEF80030DEF8B0
:1039D0000430DFF848E014F4003F14BF2B433340B9
:1039E000CEF80430DEF8083014F4801F14BF2B43E7
:1039F0003340CEF80830DEF80C30A40254BF06EA9B
:103A000003051D43054BDD600132102A7FF43CAFF6
:103A100002B0BDE8F08100BF00380240003C014028
:103A2000000002400369194214BF012000207047C2
:103A300002B90904816170470368F7B5D9070446E4
:103A400003D423689A073BD488E0A74B9A6802F016
:103A50000C02042A07D09A6802F00C02082A0BD143
:103A60005B685B0208D5A04B1B689F03E9D56368C0
:103A7000002BE6D1012034E19C4B22791A70636857
:103A80007BB1FFF705FD0546974B1B689E03D8D415
:103A9000FFF7FEFC41F28833401B9842F4D9032023
:103AA0001FE1FFF7F5FC05468F4B1B689803C8D54F
:103AB000FFF7EEFC41F28833401B9842F4D9EEE761
:103AC000894B9A6812F00C0F07D09A6802F00C022A
:103AD000082A16D15B68590213D4834B1A689207DF
:103AE00002D5E268012AC5D11968F82090FAA0F041
:103AF0002269B0FA80F021F0F80182400A431A608E
:103B00002CE0E2687A4BDAB101221A60FFF7C0FCC0
:103B10000546754803689F0705D4FFF7B9FC401BAD
:103B20000228F6D9BBE70268F82191FAA1F12369CE
:103B3000B1FA81F122F0F8028B40134303600DE0EB
:103B40001A60FFF7A5FC0546674B1B689E0705D565
:103B5000FFF79EFC401B0228F6D9A0E72368180750
:103B600003D42368590744D51FE06269614B72B1E1
:103B700001221A60FFF78CFC05465B4B5B6F9A07CE
:103B8000EFD4FFF785FC401B0228F6D987E71A60BF
:103B9000FFF77EFC0546544B5B6F9B07E1D5FFF7B3
:103BA00077FC401B0228F6D979E7002301934E4B9E
:103BB0001A6C42F080521A641B6C4F4A03F0805317
:103BC0000193019B136843F480731360FFF760FC5B
:103BD0000546494B1B68DF050ED5484B227A1A7003
:103BE000A368BBB1FFF754FC05463F4B1B6F9E0714
:103BF00008D5A269EAB959E0FFF74AFC401B022840
:103C0000E7D94CE7FFF744FC41F28833401B984268
:103C1000EBD944E7FFF73CFC0546334B1B6F980795
:103C2000E7D5FFF735FC41F28833401B9842F4D9C1
:103C300035E72D4B9B6803F00C03082B3FF41AAFBC
:103C40002F4D0023022A2B603ED1FFF721FC0646B0
:103C50002548036899012BD447F6C07797FAA7F750
:103C60004FF44036B7FA87F796FAA6F64FF0706130
:103C7000B6FA86F691FAA1F1E369226AB1FA81F106
:103C80001A43636ABB401A43A36A5B08013BB34013
:103C90001343E26A8A401343436001232B60FFF71A
:103CA000F7FB0446104B1B689A0107D5002018E06B
:103CB000FFF7EEFB801B0228CAD9F0E6FFF7E8FB0E
:103CC000001B0228EED9EAE6FFF7E2FB0446064BAA
:103CD0001B689B01EAD5FFF7DBFB001B0228F6D926
:103CE000DDE603B0F0BD00BF0038024002380240FC
:103CF00000004742800E474200700040703802408A
:103D00006000474210B51C4CA36803F00C03042B61
:103D10002ED0082B2ED1626802F03F03626847F66E
:103D2000C07112F4800F626891FAA1F147F6C07079
:103D300000EA020008BF114AB1FA81F120FA01F04D
:103D40000EBFB2FBF3F20E49B1FBF3F202FB00F33C
:103D5000094A50684FF4403292FAA2F200F440301F
:103D6000B2FA82F2D04001304000B3FBF0F010BD57
:103D7000034810BD014810BD003802400024F40083
:103D800000127A00584B1A6802F00F02914270B587
:103D900004460D460AD82168880710D55348836821
:103DA00023F0F002A3681343836008E0CAB21A70DC
:103DB0001B6803F00F038B42EDD0012070BDC907D3
:103DC00006D4494B1A6802F00F0295425AD360E0BC
:103DD0006368464A012B03D1126812F4003F08E0E1
:103DE000991E0129126802D812F0007F01E012F03A
:103DF000020FE2D03D498A6822F0030213438B6030
:103E0000FFF746FB6368012B06460ED1374B9B68D4
:103E100003F00C03042BD4D0FFF73AFB41F28833B4
:103E2000801B9842F2D9032070BD022B0DD12F4B7D
:103E30009B6803F00C03082BC3D0FFF729FB41F26A
:103E40008833801B9842F2D9EDE7032B14D1274B1E
:103E50009B6803F00C030C2BB3D0FFF719FB41F266
:103E60008833801B9842F2D9DDE7FFF711FB41F25E
:103E70008833801B9842D6D81C4B9B6813F00C0FDC
:103E8000F3D19EE7EAB21A701B6803F00F03AB424E
:103E900093D121684A0706D51448836823F4E05279
:103EA000E368134383600B0741BF104A216993689D
:103EB00023F4604344BF43EAC1039360FFF722FF4A
:103EC0000A4BF0229B6892FAA2F203F0F003B2FAD6
:103ED00082F2D340064AD35CD840064B18600F20CC
:103EE000FEF782FB002070BD003C0240003802401B
:103EF000D9730108B4010020084B4FF4E0529B68CD
:103F000092FAA2F203F4E053B2FA82F2D340044AE6
:103F1000D35C044A1068D840704700BF00380240A4
:103F2000D9730108B4010020084B4FF460429B682C
:103F300092FAA2F203F46043B2FA82F2D340044A46
:103F4000D35C044A1068D840704700BF0038024074
:103F5000D9730108B40100200F2303600B4B9A684A
:103F600002F0030242609A6802F0F00282609A68EE
:103F700002F4E052C2609B6803F46043DB08036113
:103F8000034B1B6803F00F030B60704700380240BF
:103F9000003C0240036A23F001030362036A4268A3
:103FA00070B584690D6824F07304254323F002047E
:103FB0008B6823430A4CA0420BD1CC688E6923F056
:103FC000080323434C6922F44072344323F0040372
:103FD000224342604A6885614263036270BD00BF4C
:103FE00000000140036A23F480730362036A42689D
:103FF00030B5C4690D6824F073042C438D6823F434
:10400000007343EA05230C4DA8420ED1CD6823F47A
:10401000006343EA05234D6922F4405242EA051247
:104020008D6923F4806342EA051242604A68C461E4
:10403000C263036230BD00BF00000140036A23F485
:1040400080530362036A30B54468C2690D6822F484
:10405000E64242EA05228D6823F4005343EA053321
:10406000064DA84202BF4D6924F4804444EA8514F9
:104070004460C2614A680264036230BD00000140CE
:104080007047704770470000224A036890420ED084
:10409000B0F1804F0BD0A2F57C42904207D002F5E0
:1040A0008062904203D002F58062904214D14A6847
:1040B00023F070031343174A904225D0B0F1804F8C
:1040C00022D0154A90421FD002F5806290421BD048
:1040D00002F58062904217D0104A904214D002F547
:1040E0008062904210D002F5806290420CD0036052
:1040F0008B68C3620B688362064B984204BF0B69EE
:104100000363012343617047CA6823F44073134378
:10411000EDE700BF00000140000400400040014006
:1041200010B50446A0B190F8393003F0FF021BB976
:1041300080F83820FFF7A4FF022384F83930206884
:10414000211DFFF7A1FF012384F83930002010BDA5
:10415000012010BD10B50446A0B190F8393003F02D
:10416000FF021BB980F83820FFF78BFF022384F889
:1041700039302068211DFFF787FF012384F839308B
:10418000002010BD012010BD10B50446A0B190F86C
:10419000393003F0FF021BB980F83820FFF772FFB7
:1041A000022384F839302068211DFFF76DFF0123B9
:1041B00084F83930002010BD012010BD036A23F0BF
:1041C00010030362036A426830B584690D6824F401
:1041D000E64444EA05248D6823F0200343EA0513EE
:1041E0000B4DA8420ED1CD6823F0800343EA05139E
:1041F0004D6922F4406242EA85028D6923F0400352
:1042000042EA850242604A6884618263036230BD8B
:104210000000014038B590F83830012B04460D46B7
:104220004FF0020058D0012384F8383084F8390068
:104230000C2A4BD8DFE802F0074A4A4A174A4A4A92
:10424000294A4A4A39002068FFF7A4FE23689A6980
:1042500042F008029A619A6922F004029A6199690F
:104260002A690A430FE02068FFF7A8FF236829693D
:104270009A6942F400629A619A6922F480629A61B2
:104280009A6942EA01229A6120E02068FFF7AAFEBB
:104290002368DA6942F00802DA61DA6922F004027E
:1042A000DA61D9692A690A430FE02068FFF7C6FE80
:1042B00023682969DA6942F40062DA61DA6922F472
:1042C0008062DA61DA6942EA0122DA6101230020C0
:1042D00084F8393084F8380038BD10B50123046AF9
:1042E0008B4024EA03030362036A8A401343036298
:1042F00010BD000010B5044601220068FFF7EDFF75
:104300002368064A934202BF5A6C42F400425A6440
:104310001A6842F001021A60002010BD000001403E
:1043200010B5044601220068FFF7D7FF2368064A4C
:10433000934202BF5A6C42F400425A641A6842F037
:1043400001021A60002010BD0000014010B50423D6
:10435000046A8B4024EA03030362036A8A4013431E
:10436000036210BD10B5044604220068FFF7EEFF9B
:1043700023685A6C42F400425A641A6842F00102FF
:104380001A60002010BD00002DE9F047066833696F
:10439000044623F44052C3682169C0691343A268EC
:1043A0003361F3681143626923F416430A430243FD
:1043B00023F00C031343F360736923F44072A36981
:1043C000B0F5004F43EA020373617B4B7CD19E4200
:1043D00003D003F580639E4231D1FFF7A5FD6368EA
:1043E00019254FEA43086843B0FBF8F8FFF79CFD36
:1043F000676868437F00B0FBF7F7FFF795FD6368D8
:104400004FF064095B006843B0FBF3F0B0FBF9F0D8
:1044100009FB1077FFF788FDB8FBF9F86268FF0029
:104420003237B7FBF9F707F0F807684352004FEA55
:1044300008187F00B0FBF2FAFFF776FD30E0FFF7D7
:104440005BFD636819254FEA43086843B0FBF8F841
:10445000FFF752FD676868437F00B0FBF7F7FFF78F
:104460004BFD63684FF064095B006843B0FBF3F0F9
:10447000B0FBF9F009FB1077FFF73EFDB8FBF9F848
:10448000FF0062683237B7FBF9F707F0F8076843B7
:1044900052004FEA08187F00B0FBF2FAFFF72CFD3C
:1044A000454360684000B5FBF0F0B0FBF9F009FB54
:1044B00010A2D2003232B2FBF9F303F007034344F7
:1044C0001F44B760BDE8F0879E4202D03B4B9E423E
:1044D0002ED1FFF729FD676819256843BF00B0FB9F
:1044E000F7F7FFF721FD636868439B00B0FBF3F823
:1044F000FFF71AFD63684FF0640968439B00B0FB47
:10450000F3F0B0FBF9F009FB10831B013233B3FB6E
:10451000F9F303F0F008FFF707FDB7FBF9F762685E
:10452000684392003F01B0FBF2FAFFF7FDFC2DE07B
:10453000FFF7E2FC676819256843BF00B0FBF7F797
:10454000FFF7DAFC636868439B00B0FBF3F8FFF702
:10455000D3FC63684FF064099B006843B0FBF3F041
:10456000B0FBF9F009FB10831B013233B3FBF9F305
:1045700003F0F008FFF7C0FCB7FBF9F76268684387
:1045800092003F01B0FBF2FAFFF7B6FC45436068CA
:104590008000B5FBF0F0B0FBF9F009FB10A21201AE
:1045A0003232B2FBF9F202F00F0208EB02033B4495
:1045B000B360BDE8F08700BF001001400014014067
:1045C000704710B5044640B390F8393003F0FF024D
:1045D0001BB980F83820FFF7F3FF2268242384F802
:1045E0003930D36823F40053D3602046FFF7CCFE64
:1045F00023681A6922F490421A615A6922F02A0249
:104600005A61DA6842F40052DA6000202023E06345
:1046100084F8393084F83A3010BD012010BD000014
:10462000174A1849936803F00C03042B03D0082B96
:1046300003D0154B18E0154B16E05068536810F482
:10464000800F03F03F03506814BF104A0E4AB2FBBC
:10465000F3F30B4A5268C2F30142C0F388100132EF
:1046600043435200B3FBF2F30B60054B084A9B68CF
:10467000C3F30313D25C0B68D3400B60704700BFD9
:1046800000380240B40100200024F40000127A0037
:10469000E973010810B594B0214B002101911A6C07
:1046A00042F080521A641B6C1E4A03F0805301933F
:1046B000019B0291136823F4404343F400431360C9
:1046C000136803F440430293029B0123089300B153
:1046D000052309934FF480030F93082310934FF49D
:1046E000A873119304230224129308A807230E949D
:1046F0001393FFF7A1F978B90F23039305904FF4B3
:1047000080530790214603A804940693FFF73AFBD1
:10471000B0FA80F0400900E0002014B010BD00BFE6
:10472000003802400070004030B595B00024204BA6
:1047300001941A6C42F080521A641B6C1D4A03F0FB
:1047400080530193019B0294136823F4404343F484
:10475000004313601368099403F440430293029BDF
:104760000F940323089301230B9310230C931093AE
:104770004FF4A873119304230225129308A807236A
:104780000E951393FFF758F978B90F23039305900B
:104790004FF480530790294603A804950693FFF72A
:1047A000F1FAB0FA80F0400900E0204615B030BDC3
:1047B000003802400070004008B50120FFF76AFF92
:1047C00030B9FFF767FF18B9FFF7AEFF00B9FEE792
:1047D00008BD0000174AD2F8883010B543F47003C2
:1047E000154CC2F888302368002143F00103236090
:1047F000A160236823F0847323F4803323600F4B7C
:104800006360236823F4802323604FF00063E1603A
:1048100093600B4B0B4A1A60FEF71AFEFFF7CCFFB2
:10482000236A43F008032362236A23F00803236208
:1048300010BD00BF00ED00E0003802401030002441
:10484000B40100200024F400054B186830B901229F
:104850001A60044B044A1A60FDF7C6BE704700BFD9
:10486000D016002064180020000C004008B5044B4E
:104870001B680BB9FFF7E8FF024B586A08BD00BF81
:10488000D0160020000C0040044B054A136058630A
:10489000DA6842F00202DA60704700BF000C0040A4
:1048A00064180020034B044A1360DA6822F0020205
:1048B000DA607047000C004064180020034A044B83
:1048C00013606FF002021A61704700BF6418002085
:1048D000000C0040C36810B504462BB940F2E71243
:1048E0000449054802F030F8E36820461B68BDE83B
:1048F00010401847F97301083E660108006900F08E
:10490000A5BB10B50446006900F0B0FB2046FBF7DC
:10491000DAFC204610BD0000F8B5114B436100F1F0
:104920001C0604460D46174600211822304606F0A4
:1049300075F9AC42A6610BD02046FBF7C4FC3CB134
:10494000EB681BB15B68294620469847EB68E3603B
:104950002246394604F1140000F052FB2061F8BDF4
:10496000D5480008024B1B6803B11847704700BFC9
:10497000D41600207047000008B5024C2368984701
:10498000FCE700BFB8010020836A9B0804BF244BEA
:104990001B88F0B5046B08BF9B0804EB8306750702
:1049A00048BF043E4FF0807206E90600A6F14005BC
:1049B000A6F14402A6F10C074FF0000E42F804EFF6
:1049C000BA42FBD1C26946F8202CC278C562022ADD
:1049D000416323D0134A2260114A1268D2001DD5C8
:1049E000112B1BD9A3F1100251086FF007024A43A3
:1049F000A2F13803334429464FF0CC30994204D019
:104A000041F8040C41F8080DF8E70832AB181A1FFA
:104A100094423CBF4FF0CC3243F8042CF0BD00BFB1
:104A200020740108A52E5AE290F82520C36A0AB125
:104A3000603300E020331960704710B590F82540CE
:104A4000C36A0CB1603300E0203383E8060010BD78
:104A500008B50B4800F060FB0A4B18600A4800F0EC
:104A60005BFB0A4B18600A4800F056FB094B1860C4
:104A700005F0DCFB00210846BDE80840FEF709BA56
:104A8000AC740108741B0020C074010810170020CA
:104A9000287401080C170020FFF76EBF10B50446FC
:104AA00000F01CFA21460246BDE81040014801F022
:104AB000ADBF00BF44740108FFF754BF0449054A65
:104AC000C1F1005303F5BE33D3601161704700BFDD
:104AD00028230020BC01002000F0F6FBFFF7EEFFCA
:104AE0000348002100F0A2FB00F07CF9FEE7000083
:104AF000BC010020024B4FF0FF31186800F02CBBC6
:104B000010170020014B186800F04EBB1017002052
:104B100080F309887047EFF309807047684680F397
:104B200009885A480078C00714BF0220032080F388
:104B300014887047DFF858C1EFF305831B0618BFD0
:104B40006047EFF31483DB0708BF604700DF70475F
:104B5000DFF840C1EFF305831B0618BF6047EFF392
:104B60001483DB0708BF604700DF7047EFF309805D
:104B7000816911F8021CE1BB90E80F1010B5E04705
:104B8000BDE81040EFF3098C8CE80700424B93E836
:104B90000600914208BF704741B91EF0100F16D1B0
:104BA0003E49086820F00100086010E01EF0100F78
:104BB00006BF2CED108A0120002081F825002CE989
:104BC000F00FC1F82CC00CB401F04AF80CBC1A600C
:104BD000D2F82CC0BCE8F00F92F8250000280EBFD8
:104BE0006FF0020E6FF0120EBCEC108A8CF3098885
:104BF000704710B52A4A1268914209D8294C54F8D6
:104C0000214090E80F10A047EFF3098C8CE80F00CB
:104C100010BD10B500F0AEFFBDE810401E4B93E88C
:104C20000600914208BF7047EFF3098C1EF0100F89
:104C300006BF2CED108A0120002081F825002CE908
:104C4000F00FC1F82CC00CB401F00AF80CBC1A60CB
:104C5000D2F82CC0BCE8F00F92F8250000280EBF57
:104C60006FF0020E6FF0120EBCEC108A8CF3098804
:104C7000704710B500F0D6FFFFF7CEBF10B500F0BB
:104C8000CFFF00F0CFFFFFF7C7BF00002C74010873
:104C9000235900083D590008B422002034EF00E0F9
:104CA00000000000FCFFFFFF0B4A136830B5002432
:104CB00033B19D68A94203D31C46491B1B68F7E723
:104CC0000360816013B19D68691A99600CB120601E
:104CD00030BD106030BD00BF702200200C4A136848
:104CE000002123B1834205D019461B68F9E74FF034
:104CF000FF307047036809B10B6000E01360036880
:104D00001BB1996882680A449A600020704700BF0E
:104D100070220020C0B1431C11D00C4B984211D816
:104D20000B4B1B684FF47A715A1E01FB0020B0FB3D
:104D3000F3F34FF6FE70834206D898B270474FF6F1
:104D4000FF7070474FF6FE70704700BF00093D00CE
:104D50001C74010838B1830704D10378002B18BFF5
:104D6000002070470020704738B50E4D2878B0B944
:104D70000D4C236893F8241000F0E8FF2368DA78DC
:104D8000FF2A03D1DA6A203282F309886168064A71
:104D900009B982E80A0001F08DF901232B70002087
:104DA00038BD00BF6D220020B4220020014B1878CE
:104DB000704700BF6D22002010B5EFF3108434B9A6
:104DC000EFF305841CB9EFF31484E40702D4034B1A
:104DD000187810BDDFF808C000DF10BD6D2200207C
:104DE000AD4D000810B588B0EFF31083002B33D120
:104DF000EFF30583002B2FD1FFF7DEFF28B9194C05
:104E0000246814B1646804B1A047EFF3148404F07B
:104E10000304022C0CD0032C16D0012C1ED008AC9D
:104E200084F30988104C2478E40705D5022404E0B3
:104E30000D4C2478E4070BD4032484F31488BFF3C7
:104E40004F8FBFF36F8F03E0074C2478E40705D43E
:104E5000DFF818C000DF02E0822000E0FF2008B089
:104E600010BD00BFA42200202C740108694D000869
:104E700070B50B461646024608B9002070BD0068A2
:104E80000028FAD0B2F90440E51CADB2062DF4D8E2
:104E9000D5680DB1126900E02A46211D41EA0521BD
:104EA00000F092FF0028E8D0094B0A4A013853F875
:104EB0002040E36A5A63084B1B6833B19B6823B1F7
:104EC0003146E0789847E06300E0E663204670BD35
:104ED000B01A002079510008A422002008B500F083
:104EE0002DFF18B10138024B53F8200008BD00BF58
:104EF000B01A002010B5FFF72DFF044670B1084B23
:104F00001B681BB1DB680BB1C06B9847E07800F001
:104F1000B1FFFF280CBF8120002010BD802010BDF4
:104F2000A422002010B5A8B1036883B1446864B11D
:104F300001290ED8084B1B684BB123794BB923606C
:104F400001232371617122616061204610BD184602
:104F500010BD002010BD00BF64220020F8B58307FB
:104F6000044624D118B321B3144B1A68002312F15C
:104F7000FF3643F1FF374FF47A70E0FB01673046AC
:104F8000394610F0EFF92379012B054606D0022BA4
:104F900011D12046FFF7A2FE68B902E00223237177
:104FA000E06020462946FFF77FFE0020F8BD802004
:104FB000F8BD8620F8BD8120F8BD00BF1C74010833
:104FC000830710B504460AD148B10379012B03D0F9
:104FD000022B06D1FFF782FE0020207110BD802039
:104FE00010BD812010BD830704D128B14369016938
:104FF0001B6803E0002300E003461946184670478B
:10500000F0B507460E461546EFF31084B4B9EFF33A
:10501000058EBEF1000F13D1EFF31484E40706D41C
:10502000084C24781CB9BDE8F040FFF77BBF384638
:1050300031462A46DFF810C000DFF0BD0020F0BD89
:105040002046F0BD6D220020254F000810B5EFF37B
:10505000108434B9EFF305841CB9DFF80CC000DF0D
:1050600010BD822010BD00005D4F000810B5EFF3A9
:10507000108434B9EFF305841CB9DFF80CC000DFED
:1050800010BD822010BD0000C14F000810B50446BD
:105090000846DFF80CC000DF84E80300204610BD9E
:1050A000E74F000810B548B1046824B1237823B94C
:1050B000204600F058FC204610BD002010BD70B501
:1050C00010F0030405460E4611D180B10378032B7E
:1050D0000DD10846FFF71EFE0146284600F0BCFC35
:1050E000012806D1002E14BFC120812070BD802070
:1050F00070BD204670BD820708B50AD148B103785B
:10510000032B06D100F038FCFF280CBF81200020C3
:1051100008BD802008BD000070B50546EFF310847F
:1051200094B9EFF305868EB9EFF31484E40706D43F
:10513000074C24781CB9BDE87040FFF7B3BF284680
:10514000DFF810C000DF70BD002070BD204670BDCC
:105150006D220020A550000810B5EFF3108434B97B
:10516000EFF305841CB9DFF80CC000DF10BD82200E
:1051700010BD0000BF500008084808B54FF0FF31CF
:105180000068FFF7E9FFDFF818C000DF0446FFF70B
:1051900093FC2046DFF80CC000DFFEE76822002009
:1051A000DD4E0008F54E000810B5EFF3108434B959
:1051B000EFF305841CB9DFF80CC000DF10BD8220BE
:1051C00010BD0000F75000082DE9F04180460F4661
:1051D0001646EFF31084F4B9EFF30583E3B9EFF368
:1051E0001483DB0706D40E4B1B781BB9BDE8F041D6
:1051F000FFF73EBE0B4D4FF0FF312868FFF7ACFFC5
:10520000404639463246DFF820C000DF04462868B1
:10521000FFF7CAFF00E000242046BDE8F08100BF90
:105220006D22002068220020714E00080022FFF746
:10523000CBBF10B5044660B1016859B1406860B198
:1052400003784BB90431890089B200F039FA6068FB
:1052500010BD10BD084610BD002010BD38B5114C62
:1052600023780BB900F0ACFE0F4B25781B68FF22AA
:105270009A708DB929460D48FFF7DBFF0C4B2A4683
:10528000186029460B48FFF7F3FD0B4B18600B48DD
:10529000FFF742FF0A4B186001232370094B0020DF
:1052A000187038BD6C220020B4220020B0740108B0
:1052B000701B00203074010864220020C4740108AF
:1052C000682200206D22002010B5EFF3108474B91D
:1052D000EFF305845CB9EFF31484E40703D4BDE86D
:1052E0001040FFF7BBBFDFF80CC000DF10BD82200D
:1052F00010BD00005D5200082DE9F04F0C4685B04E
:105300008046E8B10378012B1FD10846FFF702FD64
:1053100002A90246404600F0E1F9012806D100202A
:10532000002C0246034618BF402003E0002002463E
:1053300003461020029904460D4616461F4608E013
:10534000802405460646074603E0002580242E46B5
:105350002F462046294632463B4605B0BDE8F08F31
:1053600070B50E461446054660B15AB90378012B54
:1053700008D100F009FA38B12846314600F008FAA1
:10538000204670BD802070BD812070BDF8B5114BE6
:105390001C681E46E4B1A3680F4F013BA360A268DE
:1053A000B2B92568386835602146FFF7D9FF10B1DA
:1053B0000420FFF773FB6379012B04D1E1682046D9
:1053C000FFF772FC01E0012323710DB12C46E6E7E3
:1053D000F8BD00BF70220020701B00207FB504467E
:1053E0001646084601B112B18023236010E00B7805
:1053F000012BF9D102A900F0D2F9042808BF10232B
:1054000001AD14BF0196019395E8070084E80700F9
:10541000204604B070BD000038B504461546EFF3D1
:10542000108010B9EFF3058020B12A462046FFF71F
:10543000D5FF06E008461146DFF80CC000DF84E81F
:105440000700204638BD0000F95200087FB50A4C1D
:1054500021684FF0FF3203A8FFF7DEFF039B102BFC
:10546000F6D1049901A8FFF711FE019B002BEFD0A4
:1054700002989847EBE700BF701B002010B5038B24
:1054800042781943062A04460183438B03D133EA49
:10549000010219D105E0052A16D111EA030213D041
:1054A000428321EA03012183204600F0CFF8012343
:1054B00020466370628B0821FFF7BFFA214603483C
:1054C000BDE8104000F004B810BD00BF74220020F9
:1054D00030B502788C784368013AD2B22BB19D780E
:1054E000A54202D318465B68F8E7022A4B60416088
:1054F00003D803B19960886030BD00238B6030BD54
:1055000002784368013A59684160022A4FF000026C
:1055100004D809B188605A609A6000E05A60184661
:1055200070470000034B5A68426000228260586056
:10553000704700BF74220020114BDA6810B50AB121
:105540009A8A0CE000248A1AC460D86003619A82A7
:10555000848210BD002CF5D0A38A1A4423468A42C7
:10556000DC68F7D3C460D860C468036104B120610B
:10557000521A92B28282998A8A1A9A8210BD00BF08
:105580008C220020F8B5174DEB68002B29D0AB8A90
:10559000154F013BAB822E46AA8A12BBF46804B3B6
:1055A000A3683BB161685960616809B18B60626052
:1055B0000023A36021460D48FFF78AFFA38AAB8230
:1055C0006378042B01BFE38A3A689B18A382012306
:1055D0006370E368EB6000220BB11E61E260226140
:1055E000DAE7F8BD8C220020FC2200207422002083
:1055F00083682BB142685A6042685AB19360704721
:10560000054B5A68904202D142685A60704713466F
:10561000002AF6D1704700BF7422002010B58468BC
:10562000014624B94378012B0DD1074C03E02378C0
:105630000BB9A468FBE70846FFF7DAFF2046BDE890
:105640001040FFF745BF10BD74220020036910B55C
:1056500073B1C268DA60C2683AB19C8A818A214417
:10566000998213610023C36000E09A8200230361E2
:1056700010BD000070B4114BDD78EFF31086EFF32E
:10568000108272B69A78954211D901329A701A78BE
:10569000541CA54208BF00241C7006B962B695428E
:1056A00007D903EBC20370BC586099607047002EA5
:1056B000F4D0022070BCFFF7F1B900BFEC1A002053
:1056C00001231039037089080023437083704360FD
:1056D000038143818381C1817047000070B5858952
:1056E00004461646002D36D043891A1D013350F862
:1056F00022200A60C2899BB29A42438104BF0023E0
:1057000043814368EBB14378022B1AD1FFF7F8FECF
:1057100000210546FFF788F92389E9691A1D01333D
:1057200044F82210E2899BB29A42238108BF0023E9
:10573000284608BF2381FFF789FF284600F0C0FAFA
:105740001CE0EFF31080EFF3108372B6013DA581EA
:10575000A0B962B670BD9AB142680A4B1AB1196815
:10576000FFF7B6FE05E01B6843605A6098600123AE
:1057700043700821304600F0C7FA01E0002070BDF8
:10578000012070BDB4220020C2898089101A7047A0
:1057900008B5FFF76FFFBDE8084000F0D9B983896D
:1057A00010B5044603B34389043350F823300B602B
:1057B0004378022B04D10021FFF75CFF00F0C8F909
:1057C000EFF31083EFF3108272B6A289013AA2813F
:1057D00003B962B66389E28901339BB29A4263815D
:1057E00004D10023638101E0184610BD042010BDE0
:1057F000436870B504460E46002B4CD04578022D08
:105800001CD0032D0AD0012D62D1FFF779FE04468A
:1058100032461021FFF711F9657037E0084600F0B5
:1058200080F80546002853D02046FFF769FE294638
:105830000446FFF7F9F80123637027E0FFF760FEE5
:1058400000210546FFF7F0F82389E9691A1D44F89D
:105850002210EFF31082EFF3108172B6A1890131AB
:10586000A18102B962B6E28901339BB29A422381D7
:1058700004BF0023238101236B702846FFF7E6FE57
:1058800029461448BDE87040FFF722BE2046FFF7C6
:10589000DDFE2146F5E78089E189884213D223891C
:1058A0001A1D44F82260EFF31082EFF3108572B6F0
:1058B0000130A08102B962B601339BB2994208BFA0
:1058C0000023238170BD0320BDE87040FFF7E6B8D8
:1058D00070BD00BF74220020002ABBBF22F000422E
:1058E0000732033222F00702A8BF22F0030210B5EC
:1058F000B4BF10230C2392B1D4188C420FD80144AA
:1059000003445442416003608260214498188142FC
:1059100002D300510346F9E70020186010BD0120B2
:1059200010BDEFF3108372B6026803F001030AB1F1
:105930001168016003B962B61046704781420346A0
:105940000DD3426891420AD2EFF3108072B61A6802
:105950000A6010F00100196003D162B6704701209F
:105960007047002070470323037000234380436087
:105970008360C360704700002DE9F8434388054603
:10598000002B61D0324F81683A6891425CD1013B73
:105990009BB2438013B10020BDE8F8830B6A9842A4
:1059A00003D1C3680B6206E0134623B1DA6895425F
:1059B000FAD1EA68DA6091F824300C6A3CB1626886
:1059C0001AB19278934238BF1346E468F6E78B70B9
:1059D0006A68DFF8808042B32846FFF791FD2146D0
:1059E0000646FFF721F83046FFF730FE336AEB60DA
:1059F0004FF001093968D8F80430A5F80290AE607C
:105A000035628A789B789A4201D3304619E0404645
:105A1000FFF75EFD31464046FFF75AFD0C4B1B6811
:105A200083F8019086F801900AE0D8F80420927873
:105A30009A42B0D94046FFF74BFD3B6801225A70AD
:105A4000204600F03DF9A6E7FF20BDE8F88300BF3F
:105A5000B422002074220020438870B504460E460C
:105A6000144D2BB92A688260116AC160106203E08C
:105A7000826829688A4203D101336380002070BDA7
:105A8000B6B18B789178994203D293708068FFF712
:105A9000C5FD626822B129682046FFF719FD03E0C1
:105AA0002B6863605A609C600921304600F02CF935
:105AB000012070BDB4220020034B00221A60034A6B
:105AC0001268DA80704700BFA8220020A87401087D
:105AD00008B50F4B0F485A680F4B1968914205D013
